{
  "contractName": "AssetTransfer",
  "abi": [
    {
      "inputs": [
        {
          "internalType": "contract Relay",
          "name": "_relay",
          "type": "address"
        },
        {
          "internalType": "uint256",
          "name": "_initialTokens",
          "type": "uint256"
        }
      ],
      "stateMutability": "nonpayable",
      "type": "constructor"
    },
    {
      "anonymous": false,
      "inputs": [
        {
          "indexed": true,
          "internalType": "address",
          "name": "burner",
          "type": "address"
        },
        {
          "indexed": false,
          "internalType": "uint256",
          "name": "amount",
          "type": "uint256"
        }
      ],
      "name": "Burn",
      "type": "event"
    },
    {
      "anonymous": false,
      "inputs": [],
      "name": "ErrorMint",
      "type": "event"
    },
    {
      "anonymous": false,
      "inputs": [
        {
          "indexed": true,
          "internalType": "address",
          "name": "client",
          "type": "address"
        }
      ],
      "name": "FreeMint",
      "type": "event"
    },
    {
      "anonymous": false,
      "inputs": [
        {
          "indexed": true,
          "internalType": "address",
          "name": "locker",
          "type": "address"
        },
        {
          "indexed": false,
          "internalType": "uint256",
          "name": "amount",
          "type": "uint256"
        }
      ],
      "name": "Lock",
      "type": "event"
    },
    {
      "inputs": [
        {
          "internalType": "uint256",
          "name": "amount",
          "type": "uint256"
        }
      ],
      "name": "lock",
      "outputs": [],
      "stateMutability": "nonpayable",
      "type": "function"
    },
    {
      "inputs": [
        {
          "internalType": "uint256",
          "name": "blockNumber",
          "type": "uint256"
        },
        {
          "internalType": "bytes",
          "name": "rawTransaction",
          "type": "bytes"
        },
        {
          "internalType": "bytes",
          "name": "encodedPath",
          "type": "bytes"
        },
        {
          "internalType": "bytes",
          "name": "rlpParentNodes",
          "type": "bytes"
        }
      ],
      "name": "unlock",
      "outputs": [],
      "stateMutability": "nonpayable",
      "type": "function"
    },
    {
      "inputs": [
        {
          "internalType": "uint256",
          "name": "amount",
          "type": "uint256"
        }
      ],
      "name": "burn",
      "outputs": [],
      "stateMutability": "nonpayable",
      "type": "function"
    },
    {
      "inputs": [
        {
          "internalType": "uint256",
          "name": "blockNumber",
          "type": "uint256"
        },
        {
          "internalType": "bytes",
          "name": "rawTransaction",
          "type": "bytes"
        },
        {
          "internalType": "bytes",
          "name": "encodedPath",
          "type": "bytes"
        },
        {
          "internalType": "bytes",
          "name": "rlpParentNodes",
          "type": "bytes"
        }
      ],
      "name": "mint",
      "outputs": [],
      "stateMutability": "nonpayable",
      "type": "function"
    },
    {
      "inputs": [],
      "name": "freeMint",
      "outputs": [],
      "stateMutability": "nonpayable",
      "type": "function"
    },
    {
      "inputs": [
        {
          "internalType": "address",
          "name": "account",
          "type": "address"
        }
      ],
      "name": "getBalance",
      "outputs": [
        {
          "internalType": "uint256",
          "name": "balance",
          "type": "uint256"
        }
      ],
      "stateMutability": "view",
      "type": "function",
      "constant": true
    },
    {
      "inputs": [
        {
          "internalType": "address",
          "name": "account",
          "type": "address"
        }
      ],
      "name": "getLocked",
      "outputs": [
        {
          "internalType": "uint256",
          "name": "amount",
          "type": "uint256"
        }
      ],
      "stateMutability": "view",
      "type": "function",
      "constant": true
    },
    {
      "inputs": [
        {
          "internalType": "address",
          "name": "account",
          "type": "address"
        }
      ],
      "name": "getMinted",
      "outputs": [
        {
          "internalType": "uint256",
          "name": "amount",
          "type": "uint256"
        }
      ],
      "stateMutability": "view",
      "type": "function",
      "constant": true
    },
    {
      "inputs": [
        {
          "internalType": "address",
          "name": "account",
          "type": "address"
        }
      ],
      "name": "getHasMinted",
      "outputs": [
        {
          "internalType": "bool",
          "name": "val",
          "type": "bool"
        }
      ],
      "stateMutability": "view",
      "type": "function",
      "constant": true
    },
    {
      "inputs": [
        {
          "internalType": "address",
          "name": "account",
          "type": "address"
        }
      ],
      "name": "getHasLocked",
      "outputs": [
        {
          "internalType": "bool",
          "name": "val",
          "type": "bool"
        }
      ],
      "stateMutability": "view",
      "type": "function",
      "constant": true
    }
  ],
  "bytecode": "0x6080604052601260025534801561001557600080fd5b50604051611dac380380611dac8339818101604052604081101561003857600080fd5b81019080805190602001909291908051906020019092919050505081600160006101000a81548173ffffffffffffffffffffffffffffffffffffffff021916908373ffffffffffffffffffffffffffffffffffffffff160217905550806000819055505050611d00806100ac6000396000f3fe608060405234801561001057600080fd5b506004361061009e5760003560e01c8063bc22fd1b11610066578063bc22fd1b146101e7578063c5d4ac661461023f578063c6d4b47214610432578063dd46706414610625578063f8b2cb4f146106535761009e565b806340e3c2a3146100a357806342966c68146100fd5780635b70ea9f1461012b57806396215e92146101355780639efe63071461018d575b600080fd5b6100e5600480360360208110156100b957600080fd5b81019080803573ffffffffffffffffffffffffffffffffffffffff1690602001909291905050506106ab565b60405180821515815260200191505060405180910390f35b6101296004803603602081101561011357600080fd5b8101908080359060200190929190505050610701565b005b610133610abe565b005b6101776004803603602081101561014b57600080fd5b81019080803573ffffffffffffffffffffffffffffffffffffffff169060200190929190505050610c83565b6040518082815260200191505060405180910390f35b6101cf600480360360208110156101a357600080fd5b81019080803573ffffffffffffffffffffffffffffffffffffffff169060200190929190505050610ccc565b60405180821515815260200191505060405180910390f35b610229600480360360208110156101fd57600080fd5b81019080803573ffffffffffffffffffffffffffffffffffffffff169060200190929190505050610d22565b6040518082815260200191505060405180910390f35b6104306004803603608081101561025557600080fd5b81019080803590602001909291908035906020019064010000000081111561027c57600080fd5b82018360208201111561028e57600080fd5b803590602001918460018302840111640100000000831117156102b057600080fd5b91908080601f016020809104026020016040519081016040528093929190818152602001838380828437600081840152601f19601f8201169050808301925050505050505091929192908035906020019064010000000081111561031357600080fd5b82018360208201111561032557600080fd5b8035906020019184600183028401116401000000008311171561034757600080fd5b91908080601f016020809104026020016040519081016040528093929190818152602001838380828437600081840152601f19601f820116905080830192505050505050509192919290803590602001906401000000008111156103aa57600080fd5b8201836020820111156103bc57600080fd5b803590602001918460018302840111640100000000831117156103de57600080fd5b91908080601f016020809104026020016040519081016040528093929190818152602001838380828437600081840152601f19601f820116905080830192505050505050509192919290505050610d6b565b005b6106236004803603608081101561044857600080fd5b81019080803590602001909291908035906020019064010000000081111561046f57600080fd5b82018360208201111561048157600080fd5b803590602001918460018302840111640100000000831117156104a357600080fd5b91908080601f016020809104026020016040519081016040528093929190818152602001838380828437600081840152601f19601f8201169050808301925050505050505091929192908035906020019064010000000081111561050657600080fd5b82018360208201111561051857600080fd5b8035906020019184600183028401116401000000008311171561053a57600080fd5b91908080601f016020809104026020016040519081016040528093929190818152602001838380828437600081840152601f19601f8201169050808301925050505050505091929192908035906020019064010000000081111561059d57600080fd5b8201836020820111156105af57600080fd5b803590602001918460018302840111640100000000831117156105d157600080fd5b91908080601f016020809104026020016040519081016040528093929190818152602001838380828437600081840152601f19601f8201169050808301925050505050505091929192905050506111d5565b005b6106516004803603602081101561063b57600080fd5b8101908080359060200190929190505050611878565b005b6106956004803603602081101561066957600080fd5b81019080803573ffffffffffffffffffffffffffffffffffffffff169060200190929190505050611aac565b6040518082815260200191505060405180910390f35b6000600760008373ffffffffffffffffffffffffffffffffffffffff1673ffffffffffffffffffffffffffffffffffffffff16815260200190815260200160002060009054906101000a900460ff169050919050565b6000811161075a576040517f08c379a0000000000000000000000000000000000000000000000000000000008152600401808060200182810382526038815260200180611bc86038913960400191505060405180910390fd5b60011515600760003373ffffffffffffffffffffffffffffffffffffffff1673ffffffffffffffffffffffffffffffffffffffff16815260200190815260200160002060009054906101000a900460ff16151514610803576040517f08c379a0000000000000000000000000000000000000000000000000000000008152600401808060200182810382526034815260200180611c336034913960400191505060405180910390fd5b80600560003373ffffffffffffffffffffffffffffffffffffffff1673ffffffffffffffffffffffffffffffffffffffff16815260200190815260200160002054101561089b576040517f08c379a0000000000000000000000000000000000000000000000000000000008152600401808060200182810382526033815260200180611c986033913960400191505060405180910390fd5b80600360003373ffffffffffffffffffffffffffffffffffffffff1673ffffffffffffffffffffffffffffffffffffffff168152602001908152602001600020541015610933576040517f08c379a0000000000000000000000000000000000000000000000000000000008152600401808060200182810382526031815260200180611c676031913960400191505060405180910390fd5b80600560003373ffffffffffffffffffffffffffffffffffffffff1673ffffffffffffffffffffffffffffffffffffffff1681526020019081526020016000205414156109d3576000600760003373ffffffffffffffffffffffffffffffffffffffff1673ffffffffffffffffffffffffffffffffffffffff16815260200190815260200160002060006101000a81548160ff0219169083151502179055505b80600560003373ffffffffffffffffffffffffffffffffffffffff1673ffffffffffffffffffffffffffffffffffffffff1681526020019081526020016000206000828254039250508190555080600360003373ffffffffffffffffffffffffffffffffffffffff1673ffffffffffffffffffffffffffffffffffffffff168152602001908152602001600020600082825403925050819055503373ffffffffffffffffffffffffffffffffffffffff167fcc16f5dbb4873280815c1ee09dbd06736cffcc184412cf7a71a0fdb75d397ca5826040518082815260200191505060405180910390a250565b600054600360003373ffffffffffffffffffffffffffffffffffffffff1673ffffffffffffffffffffffffffffffffffffffff168152602001908152602001600020819055506000600660003373ffffffffffffffffffffffffffffffffffffffff1673ffffffffffffffffffffffffffffffffffffffff16815260200190815260200160002060006101000a81548160ff0219169083151502179055506000600460003373ffffffffffffffffffffffffffffffffffffffff1673ffffffffffffffffffffffffffffffffffffffff168152602001908152602001600020819055506000600760003373ffffffffffffffffffffffffffffffffffffffff1673ffffffffffffffffffffffffffffffffffffffff16815260200190815260200160002060006101000a81548160ff0219169083151502179055506000600560003373ffffffffffffffffffffffffffffffffffffffff1673ffffffffffffffffffffffffffffffffffffffff168152602001908152602001600020819055503373ffffffffffffffffffffffffffffffffffffffff167f7151c4f547781a71c7ec013c9b79dd1e7d182927938b93f9513e9ec94d001cc860405160405180910390a2565b6000600560008373ffffffffffffffffffffffffffffffffffffffff1673ffffffffffffffffffffffffffffffffffffffff168152602001908152602001600020549050919050565b6000600660008373ffffffffffffffffffffffffffffffffffffffff1673ffffffffffffffffffffffffffffffffffffffff16815260200190815260200160002060009054906101000a900460ff169050919050565b6000600460008373ffffffffffffffffffffffffffffffffffffffff1673ffffffffffffffffffffffffffffffffffffffff168152602001908152602001600020549050919050565b6000600160009054906101000a900473ffffffffffffffffffffffffffffffffffffffff1673ffffffffffffffffffffffffffffffffffffffff1663af2d85e9856040518263ffffffff1660e01b81526004018080602001828103825283818151815260200191508051906020019080838360005b83811015610dfb578082015181840152602081019050610de0565b50505050905090810190601f168015610e285780820380516001836020036101000a031916815260200191505b5092505050602060405180830381600087803b158015610e4757600080fd5b505af1158015610e5b573d6000803e3d6000fd5b505050506040513d6020811015610e7157600080fd5b81019080805190602001909291905050509050600160009054906101000a900473ffffffffffffffffffffffffffffffffffffffff1673ffffffffffffffffffffffffffffffffffffffff1663227d3fb4858786866040518563ffffffff1660e01b815260040180806020018581526020018060200180602001848103845288818151815260200191508051906020019080838360005b83811015610f23578082015181840152602081019050610f08565b50505050905090810190601f168015610f505780820380516001836020036101000a031916815260200191505b50848103835286818151815260200191508051906020019080838360005b83811015610f89578082015181840152602081019050610f6e565b50505050905090810190601f168015610fb65780820380516001836020036101000a031916815260200191505b50848103825285818151815260200191508051906020019080838360005b83811015610fef578082015181840152602081019050610fd4565b50505050905090810190601f16801561101c5780820380516001836020036101000a031916815260200191505b50975050505050505050602060405180830381600087803b15801561104057600080fd5b505af192505050801561107457506040513d602081101561106057600080fd5b810190808051906020019092919050505060015b6110dc573d80600081146110a4576040519150601f19603f3d011682016040523d82523d6000602084013e6110a9565b606091505b507f1fe27c800c45a998b69974bca73ddf836320854c21d27d78b188388b7e956b7f60405160405180910390a1506111ce565b80156111cc5781600560003373ffffffffffffffffffffffffffffffffffffffff1673ffffffffffffffffffffffffffffffffffffffff168152602001908152602001600020819055506001600760003373ffffffffffffffffffffffffffffffffffffffff1673ffffffffffffffffffffffffffffffffffffffff16815260200190815260200160002060006101000a81548160ff02191690831515021790555081600360003373ffffffffffffffffffffffffffffffffffffffff1673ffffffffffffffffffffffffffffffffffffffff168152602001908152602001600020600082825401925050819055505b505b5050505050565b6000600160009054906101000a900473ffffffffffffffffffffffffffffffffffffffff1673ffffffffffffffffffffffffffffffffffffffff1663af2d85e9856040518263ffffffff1660e01b81526004018080602001828103825283818151815260200191508051906020019080838360005b8381101561126557808201518184015260208101905061124a565b50505050905090810190601f1680156112925780820380516001836020036101000a031916815260200191505b5092505050602060405180830381600087803b1580156112b157600080fd5b505af11580156112c5573d6000803e3d6000fd5b505050506040513d60208110156112db57600080fd5b8101908080519060200190929190505050905060008111611347576040517f08c379a000000000000000000000000000000000000000000000000000000000815260040180806020018281038252603a815260200180611b56603a913960400191505060405180910390fd5b60011515600660003373ffffffffffffffffffffffffffffffffffffffff1673ffffffffffffffffffffffffffffffffffffffff16815260200190815260200160002060009054906101000a900460ff161515146113f0576040517f08c379a000000000000000000000000000000000000000000000000000000000815260040180806020018281038252602b815260200180611af6602b913960400191505060405180910390fd5b80600460003373ffffffffffffffffffffffffffffffffffffffff1673ffffffffffffffffffffffffffffffffffffffff168152602001908152602001600020541015611488576040517f08c379a0000000000000000000000000000000000000000000000000000000008152600401808060200182810382526035815260200180611b216035913960400191505060405180910390fd5b60011515600160009054906101000a900473ffffffffffffffffffffffffffffffffffffffff1673ffffffffffffffffffffffffffffffffffffffff1663227d3fb4868887876040518563ffffffff1660e01b815260040180806020018581526020018060200180602001848103845288818151815260200191508051906020019080838360005b8381101561152b578082015181840152602081019050611510565b50505050905090810190601f1680156115585780820380516001836020036101000a031916815260200191505b50848103835286818151815260200191508051906020019080838360005b83811015611591578082015181840152602081019050611576565b50505050905090810190601f1680156115be5780820380516001836020036101000a031916815260200191505b50848103825285818151815260200191508051906020019080838360005b838110156115f75780820151818401526020810190506115dc565b50505050905090810190601f1680156116245780820380516001836020036101000a031916815260200191505b50975050505050505050602060405180830381600087803b15801561164857600080fd5b505af115801561165c573d6000803e3d6000fd5b505050506040513d602081101561167257600080fd5b81019080805190602001909291905050501515146116f8576040517f08c379a000000000000000000000000000000000000000000000000000000000815260040180806020018281038252601c8152602001807f5468652070726f6f662073686f756c6420626520636f72726563742e0000000081525060200191505060405180910390fd5b80600460003373ffffffffffffffffffffffffffffffffffffffff1673ffffffffffffffffffffffffffffffffffffffff168152602001908152602001600020541415611798576000600660003373ffffffffffffffffffffffffffffffffffffffff1673ffffffffffffffffffffffffffffffffffffffff16815260200190815260200160002060006101000a81548160ff0219169083151502179055505b600460003373ffffffffffffffffffffffffffffffffffffffff1673ffffffffffffffffffffffffffffffffffffffff16815260200190815260200160002054600360003373ffffffffffffffffffffffffffffffffffffffff1673ffffffffffffffffffffffffffffffffffffffff1681526020019081526020016000206000828254019250508190555080600460003373ffffffffffffffffffffffffffffffffffffffff1673ffffffffffffffffffffffffffffffffffffffff168152602001908152602001600020600082825403925050819055505050505050565b600081116118d1576040517f08c379a0000000000000000000000000000000000000000000000000000000008152600401808060200182810382526038815260200180611b906038913960400191505060405180910390fd5b600360003373ffffffffffffffffffffffffffffffffffffffff1673ffffffffffffffffffffffffffffffffffffffff16815260200190815260200160002054811115611969576040517f08c379a0000000000000000000000000000000000000000000000000000000008152600401808060200182810382526033815260200180611c006033913960400191505060405180910390fd5b80600460003373ffffffffffffffffffffffffffffffffffffffff1673ffffffffffffffffffffffffffffffffffffffff168152602001908152602001600020600082825401925050819055506001600660003373ffffffffffffffffffffffffffffffffffffffff1673ffffffffffffffffffffffffffffffffffffffff16815260200190815260200160002060006101000a81548160ff02191690831515021790555080600360003373ffffffffffffffffffffffffffffffffffffffff1673ffffffffffffffffffffffffffffffffffffffff168152602001908152602001600020600082825403925050819055503373ffffffffffffffffffffffffffffffffffffffff167f625fed9875dada8643f2418b838ae0bc78d9a148a18eee4ee1979ff0f3f5d427826040518082815260200191505060405180910390a250565b6000600360008373ffffffffffffffffffffffffffffffffffffffff1673ffffffffffffffffffffffffffffffffffffffff16815260200190815260200160002054905091905056fe54686520636c69656e742063616e6e6f7420756e6c6f636b206e6f6e2d6c6f636b6564206173736574732e54686520636c69656e742063616e6e6f7420756e6c6f636b206d6f7265207468616e20746865206c6f636b656420616d6f756e742e54686520636c69656e742073686f756c6420726571756573742061206e6f6e2d7a65726f20616d6f756e7420666f7220756e6c6f636b696e672e54686520636c69656e742073686f756c6420726571756573742061206e6f6e2d7a65726f20616d6f756e7420666f72206c6f636b696e672e54686520636c69656e742073686f756c6420726571756573742061206e6f6e2d7a65726f20616d6f756e7420666f72206275726e696e672e54686520636c69656e742063616e6e6f74206c6f636b206d6f726520617373657473207468616e2068652f736865206861732e54686520636c69656e742073686f756c642068617665206d696e74656420746f6b656e73206265666f7265206275726e696e672e54686520636c69656e742063616e6e6f74206275726e206d6f7265207468616e206869732f6865722062616c616e63652e54686520636c69656e742063616e6e6f74206275726e206d6f7265207468616e2068652f73686520686173206d696e7465642ea264697066735822122096bbfcf50b7e1b11f3571d5b52bca39f2158f68ca110b23c9f478be6647f3db864736f6c63430007060033",
  "immutableReferences": {},
  "source": "pragma solidity 0.7.6;\r\n\r\nimport \"./Relay.sol\";\r\nimport \"./AssetTransferInterface.sol\";\r\n\r\ncontract AssetTransfer is AssetTransferInterface {\r\n    uint256 initialTokens;\r\n    Relay relay;\r\n    uint decimals = 18;\r\n    \r\n    mapping(address => uint256) balances;\r\n    mapping(address => uint256) locked;\r\n    mapping(address => uint256) minted;\r\n    mapping(address => bool) hasLocked;\r\n    mapping(address => bool) hasMinted;\r\n\r\n    constructor(Relay _relay, uint256 _initialTokens) {\r\n        relay = _relay;\r\n        initialTokens = _initialTokens;\r\n    }\r\n\r\n    event Lock(address indexed locker, uint256 amount);\r\n    event Burn(address indexed burner, uint256 amount);\r\n    event FreeMint(address indexed client);\r\n    event ErrorMint();\r\n\r\n    function lock(uint256 amount) external override {\r\n        require(amount > 0, \"The client should request a non-zero amount for locking.\");\r\n        require(amount <= balances[msg.sender], \"The client cannot lock more assets than he/she has.\");\r\n        //First verify the client has that much ethers.\r\n        locked[msg.sender] += amount;\r\n        hasLocked[msg.sender] = true;\r\n        balances[msg.sender] -= amount;\r\n        emit Lock(msg.sender, amount);\r\n    }\r\n\r\n    function unlock(uint blockNumber, bytes memory rawTransaction, bytes memory encodedPath, bytes memory rlpParentNodes) external override {\r\n        uint256 amount;\r\n        amount = relay.parseTransactionAmount(rawTransaction);\r\n        require(amount > 0, \"The client should request a non-zero amount for unlocking.\");\r\n        require(hasLocked[msg.sender] == true, \"The client cannot unlock non-locked assets.\");\r\n        require(locked[msg.sender] >= amount, \"The client cannot unlock more than the locked amount.\");\r\n        require(relay.checkTxProof(rawTransaction, blockNumber, encodedPath, rlpParentNodes) == true, \"The proof should be correct.\");\r\n        // It should first verify proof of burn.\r\n        if (locked[msg.sender] == amount) {\r\n            hasLocked[msg.sender] = false;\r\n        }\r\n        // The increment for balances[msg.sender] should be equal to the tx amount.\r\n        balances[msg.sender] += locked[msg.sender];\r\n        // The decrement for locked[msg.sender] should be equal to the tx amount.\r\n        locked[msg.sender] -= amount;\r\n    }\r\n\r\n    function burn(uint256 amount) external override {\r\n        require(amount > 0, \"The client should request a non-zero amount for burning.\");\r\n        require(hasMinted[msg.sender] == true, \"The client should have minted tokens before burning.\");\r\n        require(minted[msg.sender] >= amount, \"The client cannot burn more than he/she has minted.\");\r\n        require(balances[msg.sender] >= amount, \"The client cannot burn more than his/her balance.\");\r\n        if (minted[msg.sender] == amount) {\r\n            hasMinted[msg.sender] = false;\r\n        }\r\n        minted[msg.sender] -= amount;\r\n        balances[msg.sender] -= amount;\r\n        emit Burn(msg.sender, amount);\r\n    }\r\n\r\n    function mint(uint blockNumber, bytes memory rawTransaction, bytes memory encodedPath, bytes memory rlpParentNodes) external override {\r\n        uint256 amount;\r\n        //relay.salam();\r\n        amount = relay.parseTransactionAmount(rawTransaction);\r\n        //amount = amount / (10 ** decimals);\r\n        //require(amount > 0, \"The client should request a non-zero amount for minting.\");\r\n        try relay.checkTxProof(rawTransaction, blockNumber, encodedPath, rlpParentNodes) returns (bool isCorrect) {\r\n            //require(relay.checkTxProof(rawTransaction, blockNumber, encodedPath, rlpParentNodes) == true, \"The proof should be correct.\");\r\n            if (isCorrect) {\r\n            minted[msg.sender] = amount;\r\n            hasMinted[msg.sender] = true;        \r\n            balances[msg.sender] += amount;    \r\n            }\r\n        } catch (bytes memory) {\r\n            emit ErrorMint();\r\n        }\r\n        //require(relay.checkTxProof(rawTransaction, blockNumber, encodedPath, rlpParentNodes) == true, \"The proof should be correct.\");\r\n        // It should first verify the provided lock proof.\r\n        //verify(proof);\r\n        //minted[msg.sender] = amount;\r\n        //hasMinted[msg.sender] = true;        \r\n        //balances[msg.sender] += amount;\r\n\r\n    }\r\n\r\n    function _transfer(address sender, address receiver, uint256 amount) private {\r\n        require(balances[sender] >= amount, \"The sender should have enough assets to transfer.\");\r\n        balances[receiver] += amount;\r\n        balances[sender] -= amount;\r\n    }\r\n\r\n    function freeMint() external {\r\n        balances[msg.sender] = initialTokens;\r\n        hasLocked[msg.sender] = false;\r\n        locked[msg.sender] = 0;\r\n        hasMinted[msg.sender] = false;\r\n        minted[msg.sender] = 0;\r\n        emit FreeMint(msg.sender);\r\n    }\r\n\r\n    function getBalance(address account) public view returns (uint256 balance) {\r\n        return balances[account];\r\n    }\r\n\r\n    function getLocked(address account) public view returns (uint256 amount) {\r\n        return locked[account];\r\n    }\r\n\r\n    function getMinted(address account) public view returns (uint256 amount) {\r\n        return minted[account];\r\n    }\r\n\r\n    function getHasMinted(address account) public view returns (bool val) {\r\n        return hasMinted[account];\r\n    }\r\n\r\n    function getHasLocked(address account) public view returns (bool val) {\r\n        return hasLocked[account];\r\n    }\r\n    //function checkInclusion(bytes32 txhash) private view returns bool {\r\n\r\n    //}\r\n}",
  "sourcePath": "/home/niusha/Desktop/Relay/relay/src/contracts/AssetTransfer.sol",
  "compiler": {
    "name": "solc",
    "version": "0.7.6+commit.7338295f.Emscripten.clang"
  },
  "schemaVersion": "3.3.4",
  "updatedAt": "2021-04-11T20:57:06.470Z",
  "networkType": "ethereum",
  "devdoc": {
    "kind": "dev",
    "methods": {},
    "version": 1
  },
  "userdoc": {
    "kind": "user",
    "methods": {},
    "version": 1
  }
}