{
  "contractName": "AssetTransfer",
  "abi": [
    {
      "inputs": [
        {
          "internalType": "address",
          "name": "_relay",
          "type": "address"
        },
        {
          "internalType": "uint256",
          "name": "_initialTokens",
          "type": "uint256"
        }
      ],
      "stateMutability": "nonpayable",
      "type": "constructor"
    },
    {
      "anonymous": false,
      "inputs": [
        {
          "indexed": true,
          "internalType": "address",
          "name": "burner",
          "type": "address"
        },
        {
          "indexed": false,
          "internalType": "uint256",
          "name": "amount",
          "type": "uint256"
        }
      ],
      "name": "Burn",
      "type": "event"
    },
    {
      "anonymous": false,
      "inputs": [
        {
          "indexed": true,
          "internalType": "address",
          "name": "client",
          "type": "address"
        }
      ],
      "name": "FreeMint",
      "type": "event"
    },
    {
      "anonymous": false,
      "inputs": [
        {
          "indexed": true,
          "internalType": "address",
          "name": "locker",
          "type": "address"
        },
        {
          "indexed": false,
          "internalType": "uint256",
          "name": "amount",
          "type": "uint256"
        }
      ],
      "name": "Lock",
      "type": "event"
    },
    {
      "inputs": [
        {
          "internalType": "uint256",
          "name": "amount",
          "type": "uint256"
        }
      ],
      "name": "lock",
      "outputs": [],
      "stateMutability": "nonpayable",
      "type": "function"
    },
    {
      "inputs": [
        {
          "internalType": "bytes32",
          "name": "proof",
          "type": "bytes32"
        },
        {
          "internalType": "uint256",
          "name": "amount",
          "type": "uint256"
        }
      ],
      "name": "unlock",
      "outputs": [],
      "stateMutability": "nonpayable",
      "type": "function"
    },
    {
      "inputs": [
        {
          "internalType": "uint256",
          "name": "amount",
          "type": "uint256"
        }
      ],
      "name": "burn",
      "outputs": [],
      "stateMutability": "nonpayable",
      "type": "function"
    },
    {
      "inputs": [
        {
          "internalType": "bytes32",
          "name": "proof",
          "type": "bytes32"
        },
        {
          "internalType": "uint256",
          "name": "amount",
          "type": "uint256"
        }
      ],
      "name": "mint",
      "outputs": [],
      "stateMutability": "nonpayable",
      "type": "function"
    },
    {
      "inputs": [],
      "name": "freeMint",
      "outputs": [],
      "stateMutability": "nonpayable",
      "type": "function"
    },
    {
      "inputs": [
        {
          "internalType": "address",
          "name": "account",
          "type": "address"
        }
      ],
      "name": "getBalance",
      "outputs": [
        {
          "internalType": "uint256",
          "name": "balance",
          "type": "uint256"
        }
      ],
      "stateMutability": "view",
      "type": "function"
    },
    {
      "inputs": [
        {
          "internalType": "address",
          "name": "account",
          "type": "address"
        }
      ],
      "name": "getLocked",
      "outputs": [
        {
          "internalType": "uint256",
          "name": "amount",
          "type": "uint256"
        }
      ],
      "stateMutability": "view",
      "type": "function"
    },
    {
      "inputs": [
        {
          "internalType": "address",
          "name": "account",
          "type": "address"
        }
      ],
      "name": "getMinted",
      "outputs": [
        {
          "internalType": "uint256",
          "name": "amount",
          "type": "uint256"
        }
      ],
      "stateMutability": "view",
      "type": "function"
    },
    {
      "inputs": [
        {
          "internalType": "address",
          "name": "account",
          "type": "address"
        }
      ],
      "name": "getHasMinted",
      "outputs": [
        {
          "internalType": "bool",
          "name": "val",
          "type": "bool"
        }
      ],
      "stateMutability": "view",
      "type": "function"
    },
    {
      "inputs": [
        {
          "internalType": "address",
          "name": "account",
          "type": "address"
        }
      ],
      "name": "getHasLocked",
      "outputs": [
        {
          "internalType": "bool",
          "name": "val",
          "type": "bool"
        }
      ],
      "stateMutability": "view",
      "type": "function"
    }
  ],
  "bytecode": "0x608060405234801561001057600080fd5b5060405161127f38038061127f8339818101604052604081101561003357600080fd5b81019080805190602001909291908051906020019092919050505081600160006101000a81548173ffffffffffffffffffffffffffffffffffffffff021916908373ffffffffffffffffffffffffffffffffffffffff1602179055508060008190555050506111d8806100a76000396000f3fe608060405234801561001057600080fd5b506004361061009e5760003560e01c8063b0768d1e11610066578063b0768d1e146101e7578063bc22fd1b1461021f578063dd46706414610277578063e1856ff4146102a5578063f8b2cb4f146102dd5761009e565b806340e3c2a3146100a357806342966c68146100fd5780635b70ea9f1461012b57806396215e92146101355780639efe63071461018d575b600080fd5b6100e5600480360360208110156100b957600080fd5b81019080803573ffffffffffffffffffffffffffffffffffffffff169060200190929190505050610335565b60405180821515815260200191505060405180910390f35b6101296004803603602081101561011357600080fd5b810190808035906020019092919050505061038b565b005b610133610748565b005b6101776004803603602081101561014b57600080fd5b81019080803573ffffffffffffffffffffffffffffffffffffffff1690602001909291905050506107d3565b6040518082815260200191505060405180910390f35b6101cf600480360360208110156101a357600080fd5b81019080803573ffffffffffffffffffffffffffffffffffffffff16906020019092919050505061081c565b60405180821515815260200191505060405180910390f35b61021d600480360360408110156101fd57600080fd5b810190808035906020019092919080359060200190929190505050610872565b005b6102616004803603602081101561023557600080fd5b81019080803573ffffffffffffffffffffffffffffffffffffffff169060200190929190505050610b89565b6040518082815260200191505060405180910390f35b6102a36004803603602081101561028d57600080fd5b8101908080359060200190929190505050610bd2565b005b6102db600480360360408110156102bb57600080fd5b810190808035906020019092919080359060200190929190505050610e06565b005b61031f600480360360208110156102f357600080fd5b81019080803573ffffffffffffffffffffffffffffffffffffffff169060200190929190505050610f4c565b6040518082815260200191505060405180910390f35b6000600660008373ffffffffffffffffffffffffffffffffffffffff1673ffffffffffffffffffffffffffffffffffffffff16815260200190815260200160002060009054906101000a900460ff169050919050565b600081116103e4576040517f08c379a00000000000000000000000000000000000000000000000000000000081526004018080602001828103825260388152602001806110a06038913960400191505060405180910390fd5b60011515600660003373ffffffffffffffffffffffffffffffffffffffff1673ffffffffffffffffffffffffffffffffffffffff16815260200190815260200160002060009054906101000a900460ff1615151461048d576040517f08c379a000000000000000000000000000000000000000000000000000000000815260040180806020018281038252603481526020018061110b6034913960400191505060405180910390fd5b80600460003373ffffffffffffffffffffffffffffffffffffffff1673ffffffffffffffffffffffffffffffffffffffff168152602001908152602001600020541015610525576040517f08c379a00000000000000000000000000000000000000000000000000000000081526004018080602001828103825260338152602001806111706033913960400191505060405180910390fd5b80600260003373ffffffffffffffffffffffffffffffffffffffff1673ffffffffffffffffffffffffffffffffffffffff1681526020019081526020016000205410156105bd576040517f08c379a000000000000000000000000000000000000000000000000000000000815260040180806020018281038252603181526020018061113f6031913960400191505060405180910390fd5b80600460003373ffffffffffffffffffffffffffffffffffffffff1673ffffffffffffffffffffffffffffffffffffffff16815260200190815260200160002054141561065d576000600660003373ffffffffffffffffffffffffffffffffffffffff1673ffffffffffffffffffffffffffffffffffffffff16815260200190815260200160002060006101000a81548160ff0219169083151502179055505b80600460003373ffffffffffffffffffffffffffffffffffffffff1673ffffffffffffffffffffffffffffffffffffffff1681526020019081526020016000206000828254039250508190555080600260003373ffffffffffffffffffffffffffffffffffffffff1673ffffffffffffffffffffffffffffffffffffffff168152602001908152602001600020600082825403925050819055503373ffffffffffffffffffffffffffffffffffffffff167fcc16f5dbb4873280815c1ee09dbd06736cffcc184412cf7a71a0fdb75d397ca5826040518082815260200191505060405180910390a250565b600054600260003373ffffffffffffffffffffffffffffffffffffffff1673ffffffffffffffffffffffffffffffffffffffff168152602001908152602001600020819055503373ffffffffffffffffffffffffffffffffffffffff167f7151c4f547781a71c7ec013c9b79dd1e7d182927938b93f9513e9ec94d001cc860405160405180910390a2565b6000600460008373ffffffffffffffffffffffffffffffffffffffff1673ffffffffffffffffffffffffffffffffffffffff168152602001908152602001600020549050919050565b6000600560008373ffffffffffffffffffffffffffffffffffffffff1673ffffffffffffffffffffffffffffffffffffffff16815260200190815260200160002060009054906101000a900460ff169050919050565b600081116108cb576040517f08c379a000000000000000000000000000000000000000000000000000000000815260040180806020018281038252603a815260200180610ff6603a913960400191505060405180910390fd5b60011515600560003373ffffffffffffffffffffffffffffffffffffffff1673ffffffffffffffffffffffffffffffffffffffff16815260200190815260200160002060009054906101000a900460ff16151514610974576040517f08c379a000000000000000000000000000000000000000000000000000000000815260040180806020018281038252602b815260200180610f96602b913960400191505060405180910390fd5b80600360003373ffffffffffffffffffffffffffffffffffffffff1673ffffffffffffffffffffffffffffffffffffffff168152602001908152602001600020541015610a0c576040517f08c379a0000000000000000000000000000000000000000000000000000000008152600401808060200182810382526035815260200180610fc16035913960400191505060405180910390fd5b80600360003373ffffffffffffffffffffffffffffffffffffffff1673ffffffffffffffffffffffffffffffffffffffff168152602001908152602001600020541415610aac576000600560003373ffffffffffffffffffffffffffffffffffffffff1673ffffffffffffffffffffffffffffffffffffffff16815260200190815260200160002060006101000a81548160ff0219169083151502179055505b600360003373ffffffffffffffffffffffffffffffffffffffff1673ffffffffffffffffffffffffffffffffffffffff16815260200190815260200160002054600260003373ffffffffffffffffffffffffffffffffffffffff1673ffffffffffffffffffffffffffffffffffffffff1681526020019081526020016000206000828254019250508190555080600360003373ffffffffffffffffffffffffffffffffffffffff1673ffffffffffffffffffffffffffffffffffffffff168152602001908152602001600020600082825403925050819055505050565b6000600360008373ffffffffffffffffffffffffffffffffffffffff1673ffffffffffffffffffffffffffffffffffffffff168152602001908152602001600020549050919050565b60008111610c2b576040517f08c379a00000000000000000000000000000000000000000000000000000000081526004018080602001828103825260388152602001806110306038913960400191505060405180910390fd5b600260003373ffffffffffffffffffffffffffffffffffffffff1673ffffffffffffffffffffffffffffffffffffffff16815260200190815260200160002054811115610cc3576040517f08c379a00000000000000000000000000000000000000000000000000000000081526004018080602001828103825260338152602001806110d86033913960400191505060405180910390fd5b80600360003373ffffffffffffffffffffffffffffffffffffffff1673ffffffffffffffffffffffffffffffffffffffff168152602001908152602001600020600082825401925050819055506001600560003373ffffffffffffffffffffffffffffffffffffffff1673ffffffffffffffffffffffffffffffffffffffff16815260200190815260200160002060006101000a81548160ff02191690831515021790555080600260003373ffffffffffffffffffffffffffffffffffffffff1673ffffffffffffffffffffffffffffffffffffffff168152602001908152602001600020600082825403925050819055503373ffffffffffffffffffffffffffffffffffffffff167f625fed9875dada8643f2418b838ae0bc78d9a148a18eee4ee1979ff0f3f5d427826040518082815260200191505060405180910390a250565b60008111610e5f576040517f08c379a00000000000000000000000000000000000000000000000000000000081526004018080602001828103825260388152602001806110686038913960400191505060405180910390fd5b80600460003373ffffffffffffffffffffffffffffffffffffffff1673ffffffffffffffffffffffffffffffffffffffff168152602001908152602001600020819055506001600660003373ffffffffffffffffffffffffffffffffffffffff1673ffffffffffffffffffffffffffffffffffffffff16815260200190815260200160002060006101000a81548160ff02191690831515021790555080600260003373ffffffffffffffffffffffffffffffffffffffff1673ffffffffffffffffffffffffffffffffffffffff168152602001908152602001600020600082825401925050819055505050565b6000600260008373ffffffffffffffffffffffffffffffffffffffff1673ffffffffffffffffffffffffffffffffffffffff16815260200190815260200160002054905091905056fe54686520636c69656e742063616e6e6f7420756e6c6f636b206e6f6e2d6c6f636b6564206173736574732e54686520636c69656e742063616e6e6f7420756e6c6f636b206d6f7265207468616e20746865206c6f636b656420616d6f756e742e54686520636c69656e742073686f756c6420726571756573742061206e6f6e2d7a65726f20616d6f756e7420666f7220756e6c6f636b696e672e54686520636c69656e742073686f756c6420726571756573742061206e6f6e2d7a65726f20616d6f756e7420666f72206c6f636b696e672e54686520636c69656e742073686f756c6420726571756573742061206e6f6e2d7a65726f20616d6f756e7420666f72206d696e74696e672e54686520636c69656e742073686f756c6420726571756573742061206e6f6e2d7a65726f20616d6f756e7420666f72206275726e696e672e54686520636c69656e742063616e6e6f74206c6f636b206d6f726520617373657473207468616e2068652f736865206861732e54686520636c69656e742073686f756c642068617665206d696e74656420746f6b656e73206265666f7265206275726e696e672e54686520636c69656e742063616e6e6f74206275726e206d6f7265207468616e206869732f6865722062616c616e63652e54686520636c69656e742063616e6e6f74206275726e206d6f7265207468616e2068652f73686520686173206d696e7465642ea264697066735822122095d6eec9a961be7a30d49fafc22927e78978ff0a38c0c870da7def26d7d3a33364736f6c63430007060033",
  "immutableReferences": {},
  "source": "pragma solidity 0.7.6;\r\n\r\n//import \"./relay.sol\";\r\nimport \"./AssetTransferInterface.sol\";\r\n\r\ncontract AssetTransfer is AssetTransferInterface {\r\n    uint256 initialTokens;\r\n    address relay;\r\n\r\n    mapping(address => uint256) balances;\r\n    mapping(address => uint256) locked;\r\n    mapping(address => uint256) minted;\r\n    mapping(address => bool) hasLocked;\r\n    mapping(address => bool) hasMinted;\r\n\r\n    constructor(address _relay, uint256 _initialTokens) {\r\n        relay = _relay;\r\n        initialTokens = _initialTokens;\r\n    }\r\n\r\n    event Lock(address indexed locker, uint256 amount);\r\n    event Burn(address indexed burner, uint256 amount);\r\n    event FreeMint(address indexed client);\r\n\r\n    function lock(uint256 amount) external override {\r\n        require(amount > 0, \"The client should request a non-zero amount for locking.\");\r\n        require(amount <= balances[msg.sender], \"The client cannot lock more assets than he/she has.\");\r\n        //First verify the client has that much ethers.\r\n        locked[msg.sender] += amount;\r\n        hasLocked[msg.sender] = true;\r\n        balances[msg.sender] -= amount;\r\n        emit Lock(msg.sender, amount);\r\n    }\r\n\r\n    function unlock(bytes32 proof, uint256 amount) external override {\r\n        require(amount > 0, \"The client should request a non-zero amount for unlocking.\");\r\n        require(hasLocked[msg.sender] == true, \"The client cannot unlock non-locked assets.\");\r\n        require(locked[msg.sender] >= amount, \"The client cannot unlock more than the locked amount.\");\r\n        // It should first verify proof of burn.\r\n        //verify(proof);\r\n        if (locked[msg.sender] == amount) {\r\n            hasLocked[msg.sender] = false;\r\n        }\r\n        balances[msg.sender] += locked[msg.sender];\r\n        locked[msg.sender] -= amount;\r\n    }\r\n\r\n    function burn(uint256 amount) external override {\r\n        require(amount > 0, \"The client should request a non-zero amount for burning.\");\r\n        require(hasMinted[msg.sender] == true, \"The client should have minted tokens before burning.\");\r\n        require(minted[msg.sender] >= amount, \"The client cannot burn more than he/she has minted.\");\r\n        require(balances[msg.sender] >= amount, \"The client cannot burn more than his/her balance.\");\r\n        if (minted[msg.sender] == amount) {\r\n            hasMinted[msg.sender] = false;\r\n        }\r\n        minted[msg.sender] -= amount;\r\n        balances[msg.sender] -= amount;\r\n        emit Burn(msg.sender, amount);\r\n    }\r\n\r\n    function mint(bytes32 proof, uint256 amount) external override {\r\n        require(amount > 0, \"The client should request a non-zero amount for minting.\");\r\n        // It should first verify the provided lock proof.\r\n        //verify(proof);\r\n        minted[msg.sender] = amount;\r\n        hasMinted[msg.sender] = true;        \r\n        balances[msg.sender] += amount;\r\n\r\n    }\r\n\r\n    function _transfer(address sender, address receiver, uint256 amount) private {\r\n        require(balances[sender] >= amount, \"The sender should have enough assets to transfer.\");\r\n        balances[receiver] += amount;\r\n        balances[sender] -= amount;\r\n    }\r\n\r\n    function freeMint() external {\r\n        balances[msg.sender] = initialTokens;\r\n        emit FreeMint(msg.sender);\r\n    }\r\n\r\n    function getBalance(address account) public view returns (uint256 balance) {\r\n        return balances[account];\r\n    }\r\n\r\n    function getLocked(address account) public view returns (uint256 amount) {\r\n        return locked[account];\r\n    }\r\n\r\n    function getMinted(address account) public view returns (uint256 amount) {\r\n        return minted[account];\r\n    }\r\n\r\n    function getHasMinted(address account) public view returns (bool val) {\r\n        return hasMinted[account];\r\n    }\r\n\r\n    function getHasLocked(address account) public view returns (bool val) {\r\n        return hasLocked[account];\r\n    }\r\n    //function checkInclusion(bytes32 txhash) private view returns bool {\r\n\r\n    //}\r\n}",
  "sourcePath": "/home/niusha/Desktop/Relay/relay/src/contracts/AssetTransfer.sol",
  "compiler": {
    "name": "solc",
    "version": "0.7.6+commit.7338295f.Emscripten.clang"
  },
  "schemaVersion": "3.3.4",
  "updatedAt": "2021-03-30T06:59:01.001Z",
  "devdoc": {
    "kind": "dev",
    "methods": {},
    "version": 1
  },
  "userdoc": {
    "kind": "user",
    "methods": {},
    "version": 1
  }
}