{
  "contractName": "Relay",
  "abi": [
    {
      "inputs": [
        {
          "internalType": "bytes32",
          "name": "_selfHash",
          "type": "bytes32"
        },
        {
          "internalType": "uint256",
          "name": "_height",
          "type": "uint256"
        }
      ],
      "stateMutability": "nonpayable",
      "type": "constructor"
    },
    {
      "inputs": [
        {
          "internalType": "uint256",
          "name": "",
          "type": "uint256"
        },
        {
          "internalType": "uint256",
          "name": "",
          "type": "uint256"
        }
      ],
      "name": "chain",
      "outputs": [
        {
          "internalType": "bytes32",
          "name": "parentHash",
          "type": "bytes32"
        },
        {
          "internalType": "bytes32",
          "name": "stateRoot",
          "type": "bytes32"
        },
        {
          "internalType": "bytes32",
          "name": "txRoot",
          "type": "bytes32"
        },
        {
          "internalType": "bytes32",
          "name": "receiptRoot",
          "type": "bytes32"
        },
        {
          "internalType": "bytes",
          "name": "difficulty",
          "type": "bytes"
        },
        {
          "internalType": "uint256",
          "name": "height",
          "type": "uint256"
        },
        {
          "internalType": "uint256",
          "name": "nonce",
          "type": "uint256"
        },
        {
          "internalType": "bytes32",
          "name": "selfHash",
          "type": "bytes32"
        },
        {
          "internalType": "bytes32",
          "name": "hashWithoutNonce",
          "type": "bytes32"
        },
        {
          "internalType": "uint256",
          "name": "parentIdx",
          "type": "uint256"
        }
      ],
      "stateMutability": "view",
      "type": "function",
      "constant": true
    },
    {
      "inputs": [],
      "name": "initialHeight",
      "outputs": [
        {
          "internalType": "uint256",
          "name": "",
          "type": "uint256"
        }
      ],
      "stateMutability": "view",
      "type": "function",
      "constant": true
    },
    {
      "inputs": [],
      "name": "k",
      "outputs": [
        {
          "internalType": "uint256",
          "name": "",
          "type": "uint256"
        }
      ],
      "stateMutability": "view",
      "type": "function",
      "constant": true
    },
    {
      "inputs": [],
      "name": "lastHeight",
      "outputs": [
        {
          "internalType": "uint256",
          "name": "",
          "type": "uint256"
        }
      ],
      "stateMutability": "view",
      "type": "function",
      "constant": true
    },
    {
      "inputs": [],
      "name": "owner",
      "outputs": [
        {
          "internalType": "address",
          "name": "",
          "type": "address"
        }
      ],
      "stateMutability": "view",
      "type": "function",
      "constant": true
    },
    {
      "inputs": [],
      "name": "temp",
      "outputs": [
        {
          "internalType": "bytes",
          "name": "",
          "type": "bytes"
        }
      ],
      "stateMutability": "view",
      "type": "function",
      "constant": true
    },
    {
      "inputs": [],
      "name": "uintTemp",
      "outputs": [
        {
          "internalType": "uint256",
          "name": "",
          "type": "uint256"
        }
      ],
      "stateMutability": "view",
      "type": "function",
      "constant": true
    },
    {
      "inputs": [
        {
          "internalType": "bytes",
          "name": "rawHeader",
          "type": "bytes"
        },
        {
          "internalType": "bytes32",
          "name": "_selfHash",
          "type": "bytes32"
        },
        {
          "internalType": "uint256",
          "name": "parentIdx",
          "type": "uint256"
        },
        {
          "internalType": "uint256[]",
          "name": "dataSetLookup",
          "type": "uint256[]"
        },
        {
          "internalType": "uint256[]",
          "name": "witnessForLookup",
          "type": "uint256[]"
        }
      ],
      "name": "parseBlockHeader",
      "outputs": [],
      "stateMutability": "nonpayable",
      "type": "function"
    },
    {
      "inputs": [
        {
          "internalType": "bytes",
          "name": "value",
          "type": "bytes"
        },
        {
          "internalType": "uint256",
          "name": "blockHeight",
          "type": "uint256"
        },
        {
          "internalType": "bytes",
          "name": "encodedPath",
          "type": "bytes"
        },
        {
          "internalType": "bytes",
          "name": "rlpParentNodes",
          "type": "bytes"
        }
      ],
      "name": "checkTxProof",
      "outputs": [
        {
          "internalType": "bool",
          "name": "",
          "type": "bool"
        }
      ],
      "stateMutability": "nonpayable",
      "type": "function"
    },
    {
      "inputs": [
        {
          "internalType": "bytes",
          "name": "value",
          "type": "bytes"
        },
        {
          "internalType": "uint256",
          "name": "blockHeight",
          "type": "uint256"
        },
        {
          "internalType": "bytes",
          "name": "encodedPath",
          "type": "bytes"
        },
        {
          "internalType": "bytes",
          "name": "rlpParentNodes",
          "type": "bytes"
        }
      ],
      "name": "checkStateProof",
      "outputs": [
        {
          "internalType": "bool",
          "name": "",
          "type": "bool"
        }
      ],
      "stateMutability": "nonpayable",
      "type": "function"
    },
    {
      "inputs": [
        {
          "internalType": "bytes",
          "name": "value",
          "type": "bytes"
        },
        {
          "internalType": "uint256",
          "name": "blockHeight",
          "type": "uint256"
        },
        {
          "internalType": "bytes",
          "name": "encodedPath",
          "type": "bytes"
        },
        {
          "internalType": "bytes",
          "name": "rlpParentNodes",
          "type": "bytes"
        }
      ],
      "name": "checkReceiptProof",
      "outputs": [
        {
          "internalType": "bool",
          "name": "",
          "type": "bool"
        }
      ],
      "stateMutability": "nonpayable",
      "type": "function"
    },
    {
      "inputs": [
        {
          "internalType": "uint256",
          "name": "height",
          "type": "uint256"
        }
      ],
      "name": "getParentIdxNum",
      "outputs": [
        {
          "internalType": "uint256",
          "name": "",
          "type": "uint256"
        }
      ],
      "stateMutability": "nonpayable",
      "type": "function"
    }
  ],
  "bytecode": "0x6080604052336000806101000a81548173ffffffffffffffffffffffffffffffffffffffff021916908373ffffffffffffffffffffffffffffffffffffffff1602179055503480156200005157600080fd5b5060405162002c8838038062002c88833981810160405260408110156200007757600080fd5b81019080805190602001909291908051906020019092919050505060066001819055508060028190555080600381905550620000b262000189565b828160e0018181525050818160a0018181525050600460008381526020019081526020016000208190806001815401808255809150506001900390600052602060002090600a020160009091909190915060008201518160000155602082015181600101556040820151816002015560608201518160030155608082015181600401908051906020019062000149929190620001ee565b5060a0820151816005015560c0820151816006015560e08201518160070155610100820151816008015561012082015181600901555050505050620002a4565b604051806101400160405280600080191681526020016000801916815260200160008019168152602001600080191681526020016060815260200160008152602001600081526020016000801916815260200160008019168152602001600081525090565b828054600181600116156101000203166002900490600052602060002090601f01602090048101928262000226576000855562000272565b82601f106200024157805160ff191683800117855562000272565b8280016001018555821562000272579182015b828111156200027157825182559160200191906001019062000254565b5b50905062000281919062000285565b5090565b5b80821115620002a057600081600090555060010162000286565b5090565b6129d480620002b46000396000f3fe608060405234801561001057600080fd5b50600436106100b45760003560e01c80638da5cb5b116100715780638da5cb5b1461069e578063983fe872146106d2578063b4f40c611461084b578063c52d572714610869578063e2761af014610887578063e4aa8da9146108a5576100b4565b80631ea77144146100b9578063227d3fb4146101a957806325159aa9146103b2578063325586dc146103d0578063673402e5146105d95780637f5112fe1461065c575b600080fd5b6100ef600480360360408110156100cf57600080fd5b810190808035906020019092919080359060200190929190505050610aae565b604051808b81526020018a815260200189815260200188815260200180602001878152602001868152602001858152602001848152602001838152602001828103825288818151815260200191508051906020019080838360005b8381101561016557808201518184015260208101905061014a565b50505050905090810190601f1680156101925780820380516001836020036101000a031916815260200191505b509b50505050505050505050505060405180910390f35b61039a600480360360808110156101bf57600080fd5b81019080803590602001906401000000008111156101dc57600080fd5b8201836020820111156101ee57600080fd5b8035906020019184600183028401116401000000008311171561021057600080fd5b91908080601f016020809104026020016040519081016040528093929190818152602001838380828437600081840152601f19601f820116905080830192505050505050509192919290803590602001909291908035906020019064010000000081111561027d57600080fd5b82018360208201111561028f57600080fd5b803590602001918460018302840111640100000000831117156102b157600080fd5b91908080601f016020809104026020016040519081016040528093929190818152602001838380828437600081840152601f19601f8201169050808301925050505050505091929192908035906020019064010000000081111561031457600080fd5b82018360208201111561032657600080fd5b8035906020019184600183028401116401000000008311171561034857600080fd5b91908080601f016020809104026020016040519081016040528093929190818152602001838380828437600081840152601f19601f820116905080830192505050505050509192919290505050610bb7565b60405180821515815260200191505060405180910390f35b6103ba610c80565b6040518082815260200191505060405180910390f35b6105c1600480360360808110156103e657600080fd5b810190808035906020019064010000000081111561040357600080fd5b82018360208201111561041557600080fd5b8035906020019184600183028401116401000000008311171561043757600080fd5b91908080601f016020809104026020016040519081016040528093929190818152602001838380828437600081840152601f19601f82011690508083019250505050505050919291929080359060200190929190803590602001906401000000008111156104a457600080fd5b8201836020820111156104b657600080fd5b803590602001918460018302840111640100000000831117156104d857600080fd5b91908080601f016020809104026020016040519081016040528093929190818152602001838380828437600081840152601f19601f8201169050808301925050505050505091929192908035906020019064010000000081111561053b57600080fd5b82018360208201111561054d57600080fd5b8035906020019184600183028401116401000000008311171561056f57600080fd5b91908080601f016020809104026020016040519081016040528093929190818152602001838380828437600081840152601f19601f820116905080830192505050505050509192919290505050610c86565b60405180821515815260200191505060405180910390f35b6105e1610d4f565b6040518080602001828103825283818151815260200191508051906020019080838360005b83811015610621578082015181840152602081019050610606565b50505050905090810190601f16801561064e5780820380516001836020036101000a031916815260200191505b509250505060405180910390f35b6106886004803603602081101561067257600080fd5b8101908080359060200190929190505050610ded565b6040518082815260200191505060405180910390f35b6106a6610e10565b604051808273ffffffffffffffffffffffffffffffffffffffff16815260200191505060405180910390f35b610849600480360360a08110156106e857600080fd5b810190808035906020019064010000000081111561070557600080fd5b82018360208201111561071757600080fd5b8035906020019184600183028401116401000000008311171561073957600080fd5b91908080601f016020809104026020016040519081016040528093929190818152602001838380828437600081840152601f19601f8201169050808301925050505050505091929192908035906020019092919080359060200190929190803590602001906401000000008111156107b057600080fd5b8201836020820111156107c257600080fd5b803590602001918460208302840111640100000000831117156107e457600080fd5b90919293919293908035906020019064010000000081111561080557600080fd5b82018360208201111561081757600080fd5b8035906020019184602083028401116401000000008311171561083957600080fd5b9091929391929390505050610e34565b005b6108536110b2565b6040518082815260200191505060405180910390f35b6108716110b8565b6040518082815260200191505060405180910390f35b61088f6110be565b6040518082815260200191505060405180910390f35b610a96600480360360808110156108bb57600080fd5b81019080803590602001906401000000008111156108d857600080fd5b8201836020820111156108ea57600080fd5b8035906020019184600183028401116401000000008311171561090c57600080fd5b91908080601f016020809104026020016040519081016040528093929190818152602001838380828437600081840152601f19601f820116905080830192505050505050509192919290803590602001909291908035906020019064010000000081111561097957600080fd5b82018360208201111561098b57600080fd5b803590602001918460018302840111640100000000831117156109ad57600080fd5b91908080601f016020809104026020016040519081016040528093929190818152602001838380828437600081840152601f19601f82011690508083019250505050505050919291929080359060200190640100000000811115610a1057600080fd5b820183602082011115610a2257600080fd5b80359060200191846001830284011164010000000083111715610a4457600080fd5b91908080601f016020809104026020016040519081016040528093929190818152602001838380828437600081840152601f19601f8201169050808301925050505050505091929192905050506110c4565b60405180821515815260200191505060405180910390f35b60046020528160005260406000208181548110610aca57600080fd5b90600052602060002090600a020160009150915050806000015490806001015490806002015490806003015490806004018054600181600116156101000203166002900480601f016020809104026020016040519081016040528092919081815260200182805460018160011615610100020316600290048015610b8f5780601f10610b6457610100808354040283529160200191610b8f565b820191906000526020600020905b815481529060010190602001808311610b7257829003601f168201915b505050505090806005015490806006015490806007015490806008015490806009015490508a565b6000600154600254038410610c34576040517f08c379a000000000000000000000000000000000000000000000000000000000815260040180806020018281038252601a8152602001807f426c6f636b206973206e6f742066696e696c697a65642079657400000000000081525060200191505060405180910390fd5b600060046000868152602001908152602001600020600081548110610c5557fe5b90600052602060002090600a0201600201549050610c758685858461118d565b915050949350505050565b60025481565b6000600154600254038410610d03576040517f08c379a000000000000000000000000000000000000000000000000000000000815260040180806020018281038252601a8152602001807f426c6f636b206973206e6f742066696e696c697a65642079657400000000000081525060200191505060405180910390fd5b600060046000868152602001908152602001600020600081548110610d2457fe5b90600052602060002090600a0201600101549050610d448685858461118d565b915050949350505050565b60058054600181600116156101000203166002900480601f016020809104026020016040519081016040528092919081815260200182805460018160011615610100020316600290048015610de55780601f10610dba57610100808354040283529160200191610de5565b820191906000526020600020905b815481529060010190602001808311610dc857829003601f168201915b505050505081565b600060046000600184038152602001908152602001600020805490509050919050565b60008054906101000a900473ffffffffffffffffffffffffffffffffffffffff1681565b610e3c612779565b6000610e4f610e4a8a6111bf565b6111ed565b905060005b610e5d8261123b565b15611067576000811415610e8d57610e7c610e778361125e565b6112b8565b60001b83600001818152505061105a565b6003811415610eb857610ea7610ea28361125e565b6112b8565b60001b836020018181525050611059565b6004811415610ee357610ed2610ecd8361125e565b6112b8565b60001b836040018181525050611058565b6005811415610f0e57610efd610ef88361125e565b6112b8565b60001b836060018181525050611057565b6007811415610ff957610f28610f238361125e565b6113fc565b8360800181905250826080015160059080519060200190610f4a9291906127de565b50610fee60058054600181600116156101000203166002900480601f016020809104026020016040519081016040528092919081815260200182805460018160011615610100020316600290048015610fe45780601f10610fb957610100808354040283529160200191610fe4565b820191906000526020600020905b815481529060010190602001808311610fc757829003601f168201915b505050505061148a565b600681905550611056565b60088114156110215761101361100e8361125e565b6112b8565b8360a0018181525050611055565b600e8114156110495761103b6110368361125e565b6112b8565b8360c0018181525050611054565b6110528261125e565b505b5b5b5b5b5b5b8080600101915050610e54565b888360e001818152505061107f838989898989611498565b87836101200181815250506110938a611624565b836101000181815250506110a6836116f7565b50505050505050505050565b60015481565b60065481565b60035481565b6000600154600254038410611141576040517f08c379a000000000000000000000000000000000000000000000000000000000815260040180806020018281038252601a8152602001807f426c6f636b206973206e6f742066696e696c697a65642079657400000000000081525060200191505060405180910390fd5b60006004600086815260200190815260200160002060008154811061116257fe5b90600052602060002090600a02016003015490506111828685858461118d565b915050949350505050565b60008061119c8686868661189b565b905060008114156111b15760019150506111b7565b60009150505b949350505050565b6111c761286c565b600060208301905060405180604001604052808451815260200182815250915050919050565b6111f5612886565b6111fe82611b58565b61120757600080fd5b60006112168360200151611ba6565b8360200151019050604051806040016040528084815260200182815250915050919050565b600080826000015190508060000151816020015101836020015110915050919050565b61126661286c565b61126f8261123b565b61127857600080fd5b600082602001519050600061128c82611c2f565b905080820184602001818152505060405180604001604052808281526020018381525092505050919050565b600080826000015111611333576040517f08c379a00000000000000000000000000000000000000000000000000000000081526004018080602001828103825260058152602001807f73686f727400000000000000000000000000000000000000000000000000000081525060200191505060405180910390fd5b6021826000015111156113ae576040517f08c379a00000000000000000000000000000000000000000000000000000000081526004018080602001828103825260048152602001807f6c6f6e670000000000000000000000000000000000000000000000000000000081525060200191505060405180910390fd5b60006113bd8360200151611ba6565b905060008184600001510390506000808386602001510190508051915060208310156113f057826020036101000a820491505b81945050505050919050565b60606000826000015167ffffffffffffffff8111801561141b57600080fd5b506040519080825280601f01601f19166020018201604052801561144e5781602001600182028036833780820191505090505b5090506000815114156114645780915050611485565b600081602001905061147f8460200151828660000151611ce7565b81925050505b919050565b600060208201519050919050565b600154600254038660a001511015611518576040517f08c379a00000000000000000000000000000000000000000000000000000000081526004018080602001828103825260108152602001807f54686520626c6f636b206973206f6c640000000000000000000000000000000081525060200191505060405180910390fd5b6003548660a0015111611593576040517f08c379a00000000000000000000000000000000000000000000000000000000081526004018080602001828103825260168152602001807f54686520626c6f636b206973207375706572206f6c640000000000000000000081525060200191505060405180910390fd5b61159d8686611d4e565b6115aa8685858585611e01565b61161c576040517f08c379a00000000000000000000000000000000000000000000000000000000081526004018080602001828103825260098152602001807f57726f6e6720506f57000000000000000000000000000000000000000000000081525060200191505060405180910390fd5b505050505050565b60008061163583602a855103611e10565b90506000602a600385510303905060008160f01b90508060006002811061165857fe5b1a60f81b8360018151811061166957fe5b60200101907effffffffffffffffffffffffffffffffffffffffffffffffffffffffffffff1916908160001a905350806001600281106116a557fe5b1a60f81b836002815181106116b657fe5b60200101907effffffffffffffffffffffffffffffffffffffffffffffffffffffffffffff1916908160001a90535082805190602001209350505050919050565b600460008260a0015181526020019081526020016000208190806001815401808255809150506001900390600052602060002090600a020160009091909190915060008201518160000155602082015181600101556040820151816002015560608201518160030155608082015181600401908051906020019061177c9291906127de565b5060a0820151816005015560c0820151816006015560e082015181600701556101008201518160080155610120820151816009015550506002548160a00151111561189857600460008260a0015181526020019081526020016000208190806001815401808255809150506001900390600052602060002090600a02016000909190919091506000820151816000015560208201518160010155604082015181600201556060820151816003015560808201518160040190805190602001906118469291906127de565b5060a0820151816005015560c0820151816006015560e08201518160070155610100820151816008015561012082015181600901555050600260008154809291906001019190505550611897611eea565b5b50565b6000806118a7846111bf565b905060006118b48261214e565b905060608060008690506000806118ca8b612242565b90506000815114156118e6576001975050505050505050611b50565b60005b8651811015611b4757815183111561190c57600298505050505050505050611b50565b61192887828151811061191b57fe5b60200260200101516122ff565b95508580519060200120841461194957600398505050505050505050611b50565b61195a611955876111bf565b61214e565b9450601185511415611a2f5781518314156119c3578c805190602001206119948660108151811061198757fe5b60200260200101516122ff565b8051906020012014156119b257600098505050505050505050611b50565b600498505050505050505050611b50565b60008284815181106119d157fe5b602001015160f81c60f81b60f81c905060108160ff1611156119ff5760059950505050505050505050611b50565b611a1e868260ff1681518110611a1157fe5b60200260200101516112b8565b60001b945060018401935050611b3a565b600285511415611b2857611a60611a5986600081518110611a4c57fe5b60200260200101516122ff565b83856123a2565b830192508151831415611ac1578c80519060200120611a9286600181518110611a8557fe5b60200260200101516122ff565b805190602001201415611ab057600098505050505050505050611b50565b600698505050505050505050611b50565b6000611aea611ae387600081518110611ad657fe5b60200260200101516122ff565b84866123a2565b1415611b0157600798505050505050505050611b50565b611b1e85600181518110611b1157fe5b60200260200101516112b8565b60001b9350611b39565b600898505050505050505050611b50565b5b80806001019150506118e9565b50505050505050505b949350505050565b60008082600001511415611b6f5760009050611ba1565b60008083602001519050805160001a915060c060ff168260ff161015611b9a57600092505050611ba1565b6001925050505b919050565b600080825160001a9050608060ff16811015611bc6576000915050611c2a565b60b860ff16811080611beb575060c060ff168110158015611bea575060f860ff1681105b5b15611bfa576001915050611c2a565b60c060ff16811015611c1a5760018060b80360ff16820301915050611c2a565b60018060f80360ff168203019150505b919050565b6000806000835160001a9050608060ff16811015611c505760019150611cdd565b60b860ff16811015611c6d576001608060ff168203019150611cdc565b60c060ff16811015611c9d5760b78103600185019450806020036101000a85510460018201810193505050611cdb565b60f860ff16811015611cba57600160c060ff168203019150611cda565b60f78103600185019450806020036101000a855104600182018101935050505b5b5b5b8192505050919050565b6000811415611cf557611d49565b5b602060ff168110611d255782518252602060ff1683019250602060ff1682019150602060ff1681039050611cf6565b6000600182602060ff16036101000a03905080198451168184511681811785525050505b505050565b81600001516004600060018560a001510381526020019081526020016000208281548110611d7857fe5b90600052602060002090600a02016007015414611dfd576040517f08c379a00000000000000000000000000000000000000000000000000000000081526004018080602001828103825260148152602001807f706172656e7420646f65736e277420657869737400000000000000000000000081525060200191505060405180910390fd5b5050565b60006001905095945050505050565b606060008290508351811115611e2557835190505b60008167ffffffffffffffff81118015611e3e57600080fd5b506040519080825280601f01601f191660200182016040528015611e715781602001600182028036833780820191505090505b50905060005b82811015611ede57858181518110611e8b57fe5b602001015160f81c60f81b828281518110611ea257fe5b60200101907effffffffffffffffffffffffffffffffffffffffffffffffffffffffffffff1916908160001a9053508080600101915050611e77565b50809250505092915050565b60015460035460025403111561214c57600060015490506000600254905060005b60008314611f5c57600460008381526020019081526020016000208181548110611f3157fe5b90600052602060002090600a0201600901549050828060019003935050818060019003925050611f0b565b6000600460008481526020019081526020016000208281548110611f7c57fe5b90600052602060002090600a02016040518061014001604052908160008201548152602001600182015481526020016002820154815260200160038201548152602001600482018054600181600116156101000203166002900480601f0160208091040260200160405190810160405280929190818152602001828054600181600116156101000203166002900480156120575780601f1061202c57610100808354040283529160200191612057565b820191906000526020600020905b81548152906001019060200180831161203a57829003601f168201915b5050505050815260200160058201548152602001600682015481526020016007820154815260200160088201548152602001600982015481525050905061209d836124ac565b80600460008581526020019081526020016000206000815481106120bd57fe5b90600052602060002090600a020160008201518160000155602082015181600101556040820151816002015560608201518160030155608082015181600401908051906020019061210f9291906127de565b5060a0820151816005015560c0820151816006015560e0820151816007015561010082015181600801556101208201518160090155905050505050505b565b606061215982611b58565b61216257600080fd5b600061216d836124d1565b905060008167ffffffffffffffff8111801561218857600080fd5b506040519080825280602002602001820160405280156121c257816020015b6121af61286c565b8152602001906001900390816121a75790505b50905060006121d48560200151611ba6565b8560200151019050600080600090505b84811015612235576121f583611c2f565b915060405180604001604052808381526020018481525084828151811061221857fe5b6020026020010181905250818301925080806001019150506121e4565b5082945050505050919050565b60606000600283510267ffffffffffffffff8111801561226157600080fd5b506040519080825280601f01601f1916602001820160405280156122945781602001600182028036833780820191505090505b50905060005b81518110156122f5576122ad818561253e565b8282815181106122b957fe5b60200101907effffffffffffffffffffffffffffffffffffffffffffffffffffffffffffff1916908160001a905350808060010191505061229a565b5080915050919050565b6060600082600001511161231257600080fd5b60006123218360200151611ba6565b9050600081846000015103905060008167ffffffffffffffff8111801561234757600080fd5b506040519080825280601f01601f19166020018201604052801561237a5781602001600182028036833780820191505090505b5090506000816020019050612396848760200151018285611ce7565b81945050505050919050565b60008060006123b0866125c4565b90506000815167ffffffffffffffff811180156123cc57600080fd5b506040519080825280601f01601f1916602001820160405280156123ff5781602001600182028036833780820191505090505b50905060008590505b8251860181101561247a57600087828151811061242157fe5b602001015160f81c60f81b905080838884038151811061243d57fe5b60200101907effffffffffffffffffffffffffffffffffffffffffffffffffffffffffffff1916908160001a905350508080600101915050612408565b5080805190602001208280519060200120141561249a578151925061249f565b600092505b8293505050509392505050565b60006004600083815260200190815260200160002060006124cd91906128a6565b5050565b600080826000015114156124e85760009050612539565b6000806124f88460200151611ba6565b84602001510190506000846000015185602001510190505b808210156125325761252182611c2f565b820191508280600101935050612510565b8293505050505b919050565b6000806002848161254b57fe5b0614612587576010826002858161255e57fe5b048151811061256957fe5b602001015160f81c60f81b60f81c60ff168161258157fe5b066125b9565b6010826002858161259457fe5b048151811061259f57fe5b602001015160f81c60f81b60f81c60ff16816125b757fe5b045b60f81b905092915050565b606080600083511115612770576000806125df60008661253e565b60f81c905060018160ff1614806125f9575060038160ff16145b156126a857600160028651020367ffffffffffffffff8111801561261c57600080fd5b506040519080825280601f01601f19166020018201604052801561264f5781602001600182028036833780820191505090505b509250600061265f60018761253e565b9050808460008151811061266f57fe5b60200101907effffffffffffffffffffffffffffffffffffffffffffffffffffffffffffff1916908160001a9053506001925050612700565b6002808651020367ffffffffffffffff811180156126c557600080fd5b506040519080825280601f01601f1916602001820160405280156126f85781602001600182028036833780820191505090505b509250600091505b60008260ff1690505b835181101561276c5761272460028460ff168303018761253e565b84828151811061273057fe5b60200101907effffffffffffffffffffffffffffffffffffffffffffffffffffffffffffff1916908160001a9053508080600101915050612709565b5050505b80915050919050565b604051806101400160405280600080191681526020016000801916815260200160008019168152602001600080191681526020016060815260200160008152602001600081526020016000801916815260200160008019168152602001600081525090565b828054600181600116156101000203166002900490600052602060002090601f016020900481019282612814576000855561285b565b82601f1061282d57805160ff191683800117855561285b565b8280016001018555821561285b579182015b8281111561285a57825182559160200191906001019061283f565b5b50905061286891906128ca565b5090565b604051806040016040528060008152602001600081525090565b604051806040016040528061289961286c565b8152602001600081525090565b50805460008255600a02906000526020600020908101906128c791906128e7565b50565b5b808211156128e35760008160009055506001016128cb565b5090565b5b80821115612952576000808201600090556001820160009055600282016000905560038201600090556004820160006129219190612956565b6005820160009055600682016000905560078201600090556008820160009055600982016000905550600a016128e8565b5090565b50805460018160011615610100020316600290046000825580601f1061297c575061299b565b601f01602090049060005260206000209081019061299a91906128ca565b5b5056fea2646970667358221220d6b66d3280149e07ba2791ca2ffe8a7f3316060859728062b09185f2227593d564736f6c63430007060033",
  "immutableReferences": {},
  "source": "pragma solidity 0.7.6;\n\nimport \"./MerklePatriciaProof.sol\";\nimport \"./RLPReader.sol\";\n// import \"./ethash.sol\";\n\ncontract Relay {\n\n    using RLPReader for RLPReader.RLPItem;\n    using RLPReader for RLPReader.Iterator;\n    using RLPReader for bytes;\n    // Ethash public myEthash;\n    \n    address public owner = msg.sender;\n    \n    uint public k;\n    uint public lastHeight;\n    uint public initialHeight;\n    \n    modifier restricted() {\n        require(\n            msg.sender == owner,\n            \"This function is restricted to the contract's owner\"\n    );\n    _;\n    }\n\n    struct blockHeader{\n        bytes32 parentHash;\n        bytes32 stateRoot;\n        bytes32 txRoot;\n        bytes32 receiptRoot;\n        bytes difficulty;\n        uint height;\n        uint nonce;\n        bytes32 selfHash;\n        bytes32 hashWithoutNonce;\n        uint parentIdx; // parent index in the chain\n    }\n\n    mapping (uint => blockHeader[]) public chain;\n\n    // constructor (Ethash _myEthash, bytes32 _selfHash, uint _height) public {\n    constructor (bytes32 _selfHash, uint _height) public {\n        // myEthash = _myEthash;\n        k = 6; // finality parameter\n        lastHeight = _height;\n        initialHeight = _height;\n        blockHeader memory firstBlockHeader;\n        firstBlockHeader.selfHash = _selfHash;\n        firstBlockHeader.height = _height;\n        chain[_height].push(firstBlockHeader);\n    }\n    \n    bytes public temp;\n    uint256 public uintTemp;\n\n    function parseBlockHeader(bytes memory rawHeader, bytes32 _selfHash, uint parentIdx, \n    uint[] calldata dataSetLookup, uint[] calldata witnessForLookup) public{\n        //first we enter this function\n        blockHeader memory header;\n        RLPReader.Iterator memory item = rawHeader.toRlpItem().iterator();\n        \n        \n        uint idx;\n        \n        while (item.hasNext()) {\n            if (idx == 0) {\n                header.parentHash = bytes32(item.next().toUint());\n            } else if (idx == 3) {\n                header.stateRoot = bytes32(item.next().toUint());\n            } else if (idx == 4) {\n                header.txRoot = bytes32(item.next().toUint());\n            } else if (idx == 5) {\n                header.receiptRoot = bytes32(item.next().toUint());\n            } else if (idx == 7) {\n                // TODO: small changes required (wrong bytes)\n                header.difficulty = item.next().toRlpBytes();\n                temp = header.difficulty;\n                uintTemp = toUint256(temp);\n            } else if (idx == 8) {\n                header.height = item.next().toUint();\n            } else if (idx == 14) {\n                header.nonce = item.next().toUint();\n            } else{\n                item.next();\n            }\n            idx++;\n        }\n        \n        header.selfHash = _selfHash;\n        \n        validateBlockHeader(header, parentIdx, dataSetLookup, witnessForLookup);\n        header.parentIdx = parentIdx;\n        header.hashWithoutNonce = getRlpHeaderHashWithoutNonce(rawHeader);\n        addToChain(header);\n        // sendReward(msg.sender);\n    }\n    \n    function toUint256(bytes memory _bytes)   \n      internal\n      pure\n      returns (uint256 value) {\n    \n        assembly {\n          value := mload(add(_bytes, 0x20))\n        }\n    }\n    \n    function validateBlockHeader(blockHeader memory header, uint parentIdx, \n    uint[] calldata dataSetLookup, uint[] calldata witnessForLookup) internal {\n        require(header.height >= lastHeight - k, \"The block is old\");\n        require(header.height > initialHeight, \"The block is super old\");\n        parentExists(header, parentIdx);\n        require(PoWisDone(header, dataSetLookup, witnessForLookup), 'Wrong PoW');\n    }\n    \n    function addToChain(blockHeader memory header) internal {\n        chain[header.height].push(header);\n        \n        if((header.height) > lastHeight){\n            chain[header.height].push(header);\n            lastHeight++;\n            pruneChain();\n        }\n    }\n\n    function PoWisDone(blockHeader memory header, uint[] calldata dataSetLookup, uint[] calldata witnessForLookup) internal returns(bool) {\n\n        //dataSetLookup contains elements of the DAG needed for the PoW verification\n        //witnessForLookup needed for verifying the dataSetLookup\n\n        //(uint, bytes32, uint, difficulty, uint[] calldata, uint[] calldata) returns (uint, uint);\n        \n        // uint returnCode;\n        // uint errorInfo;\n        // (returnCode, errorInfo) = myEthash.verifyPoW(header.height, header.hashWithoutNonce, header.nonce, header.difficulty, dataSetLookup, witnessForLookup);\n        \n        \n        // if (returnCode == 0){\n        //     return true;\n        // }\n        // return false;\n        return true;\n    }\n\n    function getRlpHeaderHashWithoutNonce(bytes memory rawHeader) private pure returns (bytes32){\n        // duplicate rlp header and truncate nonce and mixDataHash\n        bytes memory rlpWithoutNonce = copy(rawHeader, rawHeader.length-42);  // 42: length of none+mixHash\n        uint16 rlpHeaderWithoutNonceLength = uint16(rawHeader.length-3-42);  // rlpHeaderLength - 3 prefix bytes (0xf9 + length) - length of nonce and mixHash\n        bytes2 headerLengthBytes = bytes2(rlpHeaderWithoutNonceLength);\n        rlpWithoutNonce[1] = headerLengthBytes[0];\n        rlpWithoutNonce[2] = headerLengthBytes[1];\n\n        return keccak256(rlpWithoutNonce);       \n    }\n    \n    function copy(bytes memory sourceArray, uint newLength) private pure returns (bytes memory) {\n        uint newArraySize = newLength;\n\n        if (newArraySize > sourceArray.length) {\n            newArraySize = sourceArray.length;\n        }\n\n        bytes memory newArray = new bytes(newArraySize);\n\n        for(uint i = 0; i < newArraySize; i++){\n            newArray[i] = sourceArray[i];\n        }\n\n        return newArray;\n    }\n    \n    function parentExists(blockHeader memory header, uint parentIdx) internal {\n        require(chain[header.height-1][parentIdx].selfHash == header.parentHash, \"parent doesn't exist\");\n    }\n\n    function pruneChain() internal {\n        if ((lastHeight - initialHeight) > k){\n            uint idx = k;\n            uint currentHeight = lastHeight;\n            uint stableIdx = 0;\n            while (idx != 0) {\n                stableIdx = chain[currentHeight][stableIdx].parentIdx;\n                idx--;\n                currentHeight--;\n            }\n            blockHeader memory stableHeader = chain[currentHeight][stableIdx];\n            deleteHeight(currentHeight);\n            chain[currentHeight][0] = stableHeader;\n        }\n    }\n\n    function deleteHeight(uint height) internal {\n        uint idx = 0;\n        // while(chain[height][idx]){\n        //     delete chain[height][idx]; //TODO: check if it works adn is set to 0 and 0 is considered false\n        //     idx++;\n        // }\n        delete chain[height];\n    }\n    \n    function sendReward(address relayerAddress) internal {\n\n        // call ERC20 token contract to transfer reward tokens to the relayer\n    }\n    \n    function checkTxProof(bytes memory value, uint blockHeight, bytes memory encodedPath, bytes memory rlpParentNodes) public returns (bool) {\n        // add fee for checking transaction\n        require(blockHeight < lastHeight - k, \"Block is not finilized yet\"); // require the block to be finilized \n        bytes32 txRoot = chain[blockHeight][0].txRoot;\n        // TxRootEvent(txRoot);\n        return checkInclusionProof(value, encodedPath, rlpParentNodes, txRoot);\n    }\n\n    function checkStateProof(bytes memory value, uint blockHeight, bytes memory encodedPath, bytes memory rlpParentNodes) public returns (bool) {\n        require(blockHeight < lastHeight - k, \"Block is not finilized yet\"); // require the block to be finilized \n        bytes32 stateRoot = chain[blockHeight][0].stateRoot;\n        return checkInclusionProof(value, encodedPath, rlpParentNodes, stateRoot);\n    }\n\n    function checkReceiptProof(bytes memory value, uint blockHeight, bytes memory encodedPath, bytes memory rlpParentNodes) public returns (bool) {\n        require(blockHeight < lastHeight - k, \"Block is not finilized yet\"); // require the block to be finilized \n        bytes32 receiptRoot = chain[blockHeight][0].receiptRoot;\n        return checkInclusionProof(value, encodedPath, rlpParentNodes, receiptRoot);\n    }\n  \n    function checkInclusionProof(bytes memory value, bytes memory encodedPath, bytes memory rlpParentNodes, bytes32 root) internal returns(bool) {\n         uint result;\n         result = MerklePatriciaProof.verify(value, encodedPath, rlpParentNodes, root);\n         if (result == 0){\n             return true;\n         }\n         return false;\n    }\n\n    function getParentIdxNum(uint height) public returns (uint){\n        return chain[height - 1].length;\n    }\n}\n",
  "sourcePath": "/home/niusha/Desktop/Relay/relay/src/contracts/Relay.sol",
  "compiler": {
    "name": "solc",
    "version": "0.7.6+commit.7338295f.Emscripten.clang"
  },
  "schemaVersion": "3.3.4",
  "updatedAt": "2021-03-30T05:41:03.334Z",
  "networkType": "ethereum",
  "devdoc": {
    "kind": "dev",
    "methods": {},
    "version": 1
  },
  "userdoc": {
    "kind": "user",
    "methods": {},
    "version": 1
  }
}