{
  "contractName": "Relay",
  "abi": [
    {
      "inputs": [
        {
          "internalType": "bytes32",
          "name": "_selfHash",
          "type": "bytes32"
        },
        {
          "internalType": "uint256",
          "name": "_height",
          "type": "uint256"
        }
      ],
      "stateMutability": "nonpayable",
      "type": "constructor"
    },
    {
      "inputs": [
        {
          "internalType": "uint256",
          "name": "",
          "type": "uint256"
        },
        {
          "internalType": "uint256",
          "name": "",
          "type": "uint256"
        }
      ],
      "name": "chain",
      "outputs": [
        {
          "internalType": "bytes32",
          "name": "parentHash",
          "type": "bytes32"
        },
        {
          "internalType": "bytes32",
          "name": "stateRoot",
          "type": "bytes32"
        },
        {
          "internalType": "bytes32",
          "name": "txRoot",
          "type": "bytes32"
        },
        {
          "internalType": "bytes32",
          "name": "receiptRoot",
          "type": "bytes32"
        },
        {
          "internalType": "bytes",
          "name": "difficulty",
          "type": "bytes"
        },
        {
          "internalType": "uint256",
          "name": "height",
          "type": "uint256"
        },
        {
          "internalType": "uint256",
          "name": "nonce",
          "type": "uint256"
        },
        {
          "internalType": "bytes32",
          "name": "selfHash",
          "type": "bytes32"
        },
        {
          "internalType": "bytes32",
          "name": "hashWithoutNonce",
          "type": "bytes32"
        },
        {
          "internalType": "uint256",
          "name": "parentIdx",
          "type": "uint256"
        }
      ],
      "stateMutability": "view",
      "type": "function",
      "constant": true
    },
    {
      "inputs": [],
      "name": "initialHeight",
      "outputs": [
        {
          "internalType": "uint256",
          "name": "",
          "type": "uint256"
        }
      ],
      "stateMutability": "view",
      "type": "function",
      "constant": true
    },
    {
      "inputs": [],
      "name": "k",
      "outputs": [
        {
          "internalType": "uint256",
          "name": "",
          "type": "uint256"
        }
      ],
      "stateMutability": "view",
      "type": "function",
      "constant": true
    },
    {
      "inputs": [],
      "name": "lastHeight",
      "outputs": [
        {
          "internalType": "uint256",
          "name": "",
          "type": "uint256"
        }
      ],
      "stateMutability": "view",
      "type": "function",
      "constant": true
    },
    {
      "inputs": [],
      "name": "owner",
      "outputs": [
        {
          "internalType": "address",
          "name": "",
          "type": "address"
        }
      ],
      "stateMutability": "view",
      "type": "function",
      "constant": true
    },
    {
      "inputs": [],
      "name": "temp",
      "outputs": [
        {
          "internalType": "bytes",
          "name": "",
          "type": "bytes"
        }
      ],
      "stateMutability": "view",
      "type": "function",
      "constant": true
    },
    {
      "inputs": [],
      "name": "uintTemp",
      "outputs": [
        {
          "internalType": "uint256",
          "name": "",
          "type": "uint256"
        }
      ],
      "stateMutability": "view",
      "type": "function",
      "constant": true
    },
    {
      "inputs": [
        {
          "internalType": "bytes",
          "name": "rawHeader",
          "type": "bytes"
        },
        {
          "internalType": "bytes32",
          "name": "_selfHash",
          "type": "bytes32"
        },
        {
          "internalType": "uint256",
          "name": "parentIdx",
          "type": "uint256"
        },
        {
          "internalType": "uint256[]",
          "name": "dataSetLookup",
          "type": "uint256[]"
        },
        {
          "internalType": "uint256[]",
          "name": "witnessForLookup",
          "type": "uint256[]"
        }
      ],
      "name": "parseBlockHeader",
      "outputs": [],
      "stateMutability": "nonpayable",
      "type": "function"
    },
    {
      "inputs": [],
      "name": "salam",
      "outputs": [],
      "stateMutability": "nonpayable",
      "type": "function"
    },
    {
      "inputs": [
        {
          "internalType": "bytes",
          "name": "value",
          "type": "bytes"
        },
        {
          "internalType": "uint256",
          "name": "blockHeight",
          "type": "uint256"
        },
        {
          "internalType": "bytes",
          "name": "encodedPath",
          "type": "bytes"
        },
        {
          "internalType": "bytes",
          "name": "rlpParentNodes",
          "type": "bytes"
        }
      ],
      "name": "checkTxProof",
      "outputs": [
        {
          "internalType": "bool",
          "name": "",
          "type": "bool"
        }
      ],
      "stateMutability": "nonpayable",
      "type": "function"
    },
    {
      "inputs": [
        {
          "internalType": "bytes",
          "name": "value",
          "type": "bytes"
        },
        {
          "internalType": "uint256",
          "name": "blockHeight",
          "type": "uint256"
        },
        {
          "internalType": "bytes",
          "name": "encodedPath",
          "type": "bytes"
        },
        {
          "internalType": "bytes",
          "name": "rlpParentNodes",
          "type": "bytes"
        }
      ],
      "name": "checkStateProof",
      "outputs": [
        {
          "internalType": "bool",
          "name": "",
          "type": "bool"
        }
      ],
      "stateMutability": "nonpayable",
      "type": "function"
    },
    {
      "inputs": [
        {
          "internalType": "bytes",
          "name": "value",
          "type": "bytes"
        },
        {
          "internalType": "uint256",
          "name": "blockHeight",
          "type": "uint256"
        },
        {
          "internalType": "bytes",
          "name": "encodedPath",
          "type": "bytes"
        },
        {
          "internalType": "bytes",
          "name": "rlpParentNodes",
          "type": "bytes"
        }
      ],
      "name": "checkReceiptProof",
      "outputs": [
        {
          "internalType": "bool",
          "name": "",
          "type": "bool"
        }
      ],
      "stateMutability": "nonpayable",
      "type": "function"
    },
    {
      "inputs": [
        {
          "internalType": "uint256",
          "name": "height",
          "type": "uint256"
        }
      ],
      "name": "getParentIdxNum",
      "outputs": [
        {
          "internalType": "uint256",
          "name": "",
          "type": "uint256"
        }
      ],
      "stateMutability": "nonpayable",
      "type": "function"
    },
    {
      "inputs": [
        {
          "internalType": "bytes",
          "name": "rawData",
          "type": "bytes"
        }
      ],
      "name": "parseTransactionAmount",
      "outputs": [
        {
          "internalType": "uint256",
          "name": "",
          "type": "uint256"
        }
      ],
      "stateMutability": "nonpayable",
      "type": "function"
    }
  ],
  "bytecode": "0x6080604052336000806101000a81548173ffffffffffffffffffffffffffffffffffffffff021916908373ffffffffffffffffffffffffffffffffffffffff1602179055503480156200005157600080fd5b5060405162002d5e38038062002d5e833981810160405260408110156200007757600080fd5b81019080805190602001909291908051906020019092919050505060066001819055508060028190555080600381905550620000b262000189565b828160e0018181525050818160a0018181525050600460008381526020019081526020016000208190806001815401808255809150506001900390600052602060002090600a020160009091909190915060008201518160000155602082015181600101556040820151816002015560608201518160030155608082015181600401908051906020019062000149929190620001ee565b5060a0820151816005015560c0820151816006015560e08201518160070155610100820151816008015561012082015181600901555050505050620002a4565b604051806101400160405280600080191681526020016000801916815260200160008019168152602001600080191681526020016060815260200160008152602001600081526020016000801916815260200160008019168152602001600081525090565b828054600181600116156101000203166002900490600052602060002090601f01602090048101928262000226576000855562000272565b82601f106200024157805160ff191683800117855562000272565b8280016001018555821562000272579182015b828111156200027157825182559160200191906001019062000254565b5b50905062000281919062000285565b5090565b5b80821115620002a057600081600090555060010162000286565b5090565b612aaa80620002b46000396000f3fe608060405234801561001057600080fd5b50600436106100ea5760003560e01c8063983fe8721161008c578063ba59d9ff11610066578063ba59d9ff1461096e578063c52d572714610978578063e2761af014610996578063e4aa8da9146109b4576100ea565b8063983fe87214610708578063af2d85e914610881578063b4f40c6114610950576100ea565b8063325586dc116100c8578063325586dc14610406578063673402e51461060f5780637f5112fe146106925780638da5cb5b146106d4576100ea565b80631ea77144146100ef578063227d3fb4146101df57806325159aa9146103e8575b600080fd5b6101256004803603604081101561010557600080fd5b810190808035906020019092919080359060200190929190505050610bbd565b604051808b81526020018a815260200189815260200188815260200180602001878152602001868152602001858152602001848152602001838152602001828103825288818151815260200191508051906020019080838360005b8381101561019b578082015181840152602081019050610180565b50505050905090810190601f1680156101c85780820380516001836020036101000a031916815260200191505b509b50505050505050505050505060405180910390f35b6103d0600480360360808110156101f557600080fd5b810190808035906020019064010000000081111561021257600080fd5b82018360208201111561022457600080fd5b8035906020019184600183028401116401000000008311171561024657600080fd5b91908080601f016020809104026020016040519081016040528093929190818152602001838380828437600081840152601f19601f82011690508083019250505050505050919291929080359060200190929190803590602001906401000000008111156102b357600080fd5b8201836020820111156102c557600080fd5b803590602001918460018302840111640100000000831117156102e757600080fd5b91908080601f016020809104026020016040519081016040528093929190818152602001838380828437600081840152601f19601f8201169050808301925050505050505091929192908035906020019064010000000081111561034a57600080fd5b82018360208201111561035c57600080fd5b8035906020019184600183028401116401000000008311171561037e57600080fd5b91908080601f016020809104026020016040519081016040528093929190818152602001838380828437600081840152601f19601f820116905080830192505050505050509192919290505050610cc6565b60405180821515815260200191505060405180910390f35b6103f0610d8f565b6040518082815260200191505060405180910390f35b6105f76004803603608081101561041c57600080fd5b810190808035906020019064010000000081111561043957600080fd5b82018360208201111561044b57600080fd5b8035906020019184600183028401116401000000008311171561046d57600080fd5b91908080601f016020809104026020016040519081016040528093929190818152602001838380828437600081840152601f19601f82011690508083019250505050505050919291929080359060200190929190803590602001906401000000008111156104da57600080fd5b8201836020820111156104ec57600080fd5b8035906020019184600183028401116401000000008311171561050e57600080fd5b91908080601f016020809104026020016040519081016040528093929190818152602001838380828437600081840152601f19601f8201169050808301925050505050505091929192908035906020019064010000000081111561057157600080fd5b82018360208201111561058357600080fd5b803590602001918460018302840111640100000000831117156105a557600080fd5b91908080601f016020809104026020016040519081016040528093929190818152602001838380828437600081840152601f19601f820116905080830192505050505050509192919290505050610d95565b60405180821515815260200191505060405180910390f35b610617610e5e565b6040518080602001828103825283818151815260200191508051906020019080838360005b8381101561065757808201518184015260208101905061063c565b50505050905090810190601f1680156106845780820380516001836020036101000a031916815260200191505b509250505060405180910390f35b6106be600480360360208110156106a857600080fd5b8101908080359060200190929190505050610efc565b6040518082815260200191505060405180910390f35b6106dc610f1f565b604051808273ffffffffffffffffffffffffffffffffffffffff16815260200191505060405180910390f35b61087f600480360360a081101561071e57600080fd5b810190808035906020019064010000000081111561073b57600080fd5b82018360208201111561074d57600080fd5b8035906020019184600183028401116401000000008311171561076f57600080fd5b91908080601f016020809104026020016040519081016040528093929190818152602001838380828437600081840152601f19601f8201169050808301925050505050505091929192908035906020019092919080359060200190929190803590602001906401000000008111156107e657600080fd5b8201836020820111156107f857600080fd5b8035906020019184602083028401116401000000008311171561081a57600080fd5b90919293919293908035906020019064010000000081111561083b57600080fd5b82018360208201111561084d57600080fd5b8035906020019184602083028401116401000000008311171561086f57600080fd5b9091929391929390505050610f43565b005b61093a6004803603602081101561089757600080fd5b81019080803590602001906401000000008111156108b457600080fd5b8201836020820111156108c657600080fd5b803590602001918460018302840111640100000000831117156108e857600080fd5b91908080601f016020809104026020016040519081016040528093929190818152602001838380828437600081840152601f19601f8201169050808301925050505050505091929192905050506111c1565b6040518082815260200191505060405180910390f35b6109586111e0565b6040518082815260200191505060405180910390f35b6109766111e6565b005b6109806111e8565b6040518082815260200191505060405180910390f35b61099e6111ee565b6040518082815260200191505060405180910390f35b610ba5600480360360808110156109ca57600080fd5b81019080803590602001906401000000008111156109e757600080fd5b8201836020820111156109f957600080fd5b80359060200191846001830284011164010000000083111715610a1b57600080fd5b91908080601f016020809104026020016040519081016040528093929190818152602001838380828437600081840152601f19601f8201169050808301925050505050505091929192908035906020019092919080359060200190640100000000811115610a8857600080fd5b820183602082011115610a9a57600080fd5b80359060200191846001830284011164010000000083111715610abc57600080fd5b91908080601f016020809104026020016040519081016040528093929190818152602001838380828437600081840152601f19601f82011690508083019250505050505050919291929080359060200190640100000000811115610b1f57600080fd5b820183602082011115610b3157600080fd5b80359060200191846001830284011164010000000083111715610b5357600080fd5b91908080601f016020809104026020016040519081016040528093929190818152602001838380828437600081840152601f19601f8201169050808301925050505050505091929192905050506111f4565b60405180821515815260200191505060405180910390f35b60046020528160005260406000208181548110610bd957600080fd5b90600052602060002090600a020160009150915050806000015490806001015490806002015490806003015490806004018054600181600116156101000203166002900480601f016020809104026020016040519081016040528092919081815260200182805460018160011615610100020316600290048015610c9e5780601f10610c7357610100808354040283529160200191610c9e565b820191906000526020600020905b815481529060010190602001808311610c8157829003601f168201915b505050505090806005015490806006015490806007015490806008015490806009015490508a565b6000600154600254038410610d43576040517f08c379a000000000000000000000000000000000000000000000000000000000815260040180806020018281038252601a8152602001807f426c6f636b206973206e6f742066696e696c697a65642079657400000000000081525060200191505060405180910390fd5b600060046000868152602001908152602001600020600081548110610d6457fe5b90600052602060002090600a0201600201549050610d84868585846112bd565b915050949350505050565b60025481565b6000600154600254038410610e12576040517f08c379a000000000000000000000000000000000000000000000000000000000815260040180806020018281038252601a8152602001807f426c6f636b206973206e6f742066696e696c697a65642079657400000000000081525060200191505060405180910390fd5b600060046000868152602001908152602001600020600081548110610e3357fe5b90600052602060002090600a0201600101549050610e53868585846112bd565b915050949350505050565b60058054600181600116156101000203166002900480601f016020809104026020016040519081016040528092919081815260200182805460018160011615610100020316600290048015610ef45780601f10610ec957610100808354040283529160200191610ef4565b820191906000526020600020905b815481529060010190602001808311610ed757829003601f168201915b505050505081565b600060046000600184038152602001908152602001600020805490509050919050565b60008054906101000a900473ffffffffffffffffffffffffffffffffffffffff1681565b610f4b61284d565b6000610f5e610f598a6112ef565b61131d565b905060005b610f6c8261136b565b15611176576000811415610f9c57610f8b610f868361138e565b6113e8565b60001b836000018181525050611169565b6003811415610fc757610fb6610fb18361138e565b6113e8565b60001b836020018181525050611168565b6004811415610ff257610fe1610fdc8361138e565b6113e8565b60001b836040018181525050611167565b600581141561101d5761100c6110078361138e565b6113e8565b60001b836060018181525050611166565b6007811415611108576110376110328361138e565b61152c565b83608001819052508260800151600590805190602001906110599291906128b2565b506110fd60058054600181600116156101000203166002900480601f0160208091040260200160405190810160405280929190818152602001828054600181600116156101000203166002900480156110f35780601f106110c8576101008083540402835291602001916110f3565b820191906000526020600020905b8154815290600101906020018083116110d657829003601f168201915b50505050506115ba565b600681905550611165565b60088114156111305761112261111d8361138e565b6113e8565b8360a0018181525050611164565b600e8114156111585761114a6111458361138e565b6113e8565b8360c0018181525050611163565b6111618261138e565b505b5b5b5b5b5b5b8080600101915050610f63565b888360e001818152505061118e8389898989896115c8565b87836101200181815250506111a28a611754565b836101000181815250506111b583611827565b50505050505050505050565b6000806111cd8361190f565b90506111d881611953565b915050919050565b60015481565b565b60065481565b60035481565b6000600154600254038410611271576040517f08c379a000000000000000000000000000000000000000000000000000000000815260040180806020018281038252601a8152602001807f426c6f636b206973206e6f742066696e696c697a65642079657400000000000081525060200191505060405180910390fd5b60006004600086815260200190815260200160002060008154811061129257fe5b90600052602060002090600a02016003015490506112b2868585846112bd565b915050949350505050565b6000806112cc86868686611966565b905060008114156112e15760019150506112e7565b60009150505b949350505050565b6112f7612940565b600060208301905060405180604001604052808451815260200182815250915050919050565b61132561295a565b61132e82611c79565b61133757600080fd5b60006113468360200151611cc7565b8360200151019050604051806040016040528084815260200182815250915050919050565b600080826000015190508060000151816020015101836020015110915050919050565b611396612940565b61139f8261136b565b6113a857600080fd5b60008260200151905060006113bc82611d50565b905080820184602001818152505060405180604001604052808281526020018381525092505050919050565b600080826000015111611463576040517f08c379a00000000000000000000000000000000000000000000000000000000081526004018080602001828103825260058152602001807f73686f727400000000000000000000000000000000000000000000000000000081525060200191505060405180910390fd5b6021826000015111156114de576040517f08c379a00000000000000000000000000000000000000000000000000000000081526004018080602001828103825260048152602001807f6c6f6e670000000000000000000000000000000000000000000000000000000081525060200191505060405180910390fd5b60006114ed8360200151611cc7565b9050600081846000015103905060008083866020015101905080519150602083101561152057826020036101000a820491505b81945050505050919050565b60606000826000015167ffffffffffffffff8111801561154b57600080fd5b506040519080825280601f01601f19166020018201604052801561157e5781602001600182028036833780820191505090505b50905060008151141561159457809150506115b5565b60008160200190506115af8460200151828660000151611e08565b81925050505b919050565b600060208201519050919050565b600154600254038660a001511015611648576040517f08c379a00000000000000000000000000000000000000000000000000000000081526004018080602001828103825260108152602001807f54686520626c6f636b206973206f6c640000000000000000000000000000000081525060200191505060405180910390fd5b6003548660a00151116116c3576040517f08c379a00000000000000000000000000000000000000000000000000000000081526004018080602001828103825260168152602001807f54686520626c6f636b206973207375706572206f6c640000000000000000000081525060200191505060405180910390fd5b6116cd8686611e6f565b6116da8685858585611f22565b61174c576040517f08c379a00000000000000000000000000000000000000000000000000000000081526004018080602001828103825260098152602001807f57726f6e6720506f57000000000000000000000000000000000000000000000081525060200191505060405180910390fd5b505050505050565b60008061176583602a855103611f31565b90506000602a600385510303905060008160f01b90508060006002811061178857fe5b1a60f81b8360018151811061179957fe5b60200101907effffffffffffffffffffffffffffffffffffffffffffffffffffffffffffff1916908160001a905350806001600281106117d557fe5b1a60f81b836002815181106117e657fe5b60200101907effffffffffffffffffffffffffffffffffffffffffffffffffffffffffffff1916908160001a90535082805190602001209350505050919050565b600460008260a0015181526020019081526020016000208190806001815401808255809150506001900390600052602060002090600a02016000909190919091506000820151816000015560208201518160010155604082015181600201556060820151816003015560808201518160040190805190602001906118ac9291906128b2565b5060a0820151816005015560c0820151816006015560e082015181600701556101008201518160080155610120820151816009015550506002548160a00151111561190c5760026000815480929190600101919050555061190b61200b565b5b50565b6060600061191c836112ef565b905060008061192a8361218a565b90506119498160058151811061193c57fe5b602002602001015161227e565b9350505050919050565b6000806024830151905080915050919050565b600080611972846112ef565b9050600061197f8261218a565b905060608060008690506000806119958b612321565b90506000815114156119b1576001975050505050505050611c71565b60005b8651811015611c685781518311156119d757600298505050505050505050611c71565b6119f38782815181106119e657fe5b602002602001015161227e565b955085805190602001208414611a5d577ff463ca2f52ee277cdcc79dcfcda4e12c1d04d2ba02aaf9a8dde7287a2eb6769a848780519060200120604051808381526020018281526020019250505060405180910390a1806103e80198505050505050505050611c71565b6000611a68876112ef565b9050611a738161218a565b9550601186511415611b4b578251841415611ade578d80519060200120611aad87601081518110611aa057fe5b602002602001015161227e565b805190602001201415611acc5760009950505050505050505050611c71565b60049950505050505050505050611c71565b6000838581518110611aec57fe5b602001015160f81c60f81b60f81c905060108160ff161115611b1b5760059a5050505050505050505050611c71565b611b3a878260ff1681518110611b2d57fe5b60200260200101516113e8565b60001b955060018501945050611c5a565b600286511415611c4757611b7c611b7587600081518110611b6857fe5b602002602001015161227e565b84866123de565b840193508251841415611bdf578d80519060200120611bae87600181518110611ba157fe5b602002602001015161227e565b805190602001201415611bcd5760009950505050505050505050611c71565b60069950505050505050505050611c71565b6000611c08611c0188600081518110611bf457fe5b602002602001015161227e565b85876123de565b1415611c205760079950505050505050505050611c71565b611c3d86600181518110611c3057fe5b60200260200101516113e8565b60001b9450611c59565b60089950505050505050505050611c71565b5b5080806001019150506119b4565b50505050505050505b949350505050565b60008082600001511415611c905760009050611cc2565b60008083602001519050805160001a915060c060ff168260ff161015611cbb57600092505050611cc2565b6001925050505b919050565b600080825160001a9050608060ff16811015611ce7576000915050611d4b565b60b860ff16811080611d0c575060c060ff168110158015611d0b575060f860ff1681105b5b15611d1b576001915050611d4b565b60c060ff16811015611d3b5760018060b80360ff16820301915050611d4b565b60018060f80360ff168203019150505b919050565b6000806000835160001a9050608060ff16811015611d715760019150611dfe565b60b860ff16811015611d8e576001608060ff168203019150611dfd565b60c060ff16811015611dbe5760b78103600185019450806020036101000a85510460018201810193505050611dfc565b60f860ff16811015611ddb57600160c060ff168203019150611dfb565b60f78103600185019450806020036101000a855104600182018101935050505b5b5b5b8192505050919050565b6000811415611e1657611e6a565b5b602060ff168110611e465782518252602060ff1683019250602060ff1682019150602060ff1681039050611e17565b6000600182602060ff16036101000a03905080198451168184511681811785525050505b505050565b81600001516004600060018560a001510381526020019081526020016000208281548110611e9957fe5b90600052602060002090600a02016007015414611f1e576040517f08c379a00000000000000000000000000000000000000000000000000000000081526004018080602001828103825260148152602001807f706172656e7420646f65736e277420657869737400000000000000000000000081525060200191505060405180910390fd5b5050565b60006001905095945050505050565b606060008290508351811115611f4657835190505b60008167ffffffffffffffff81118015611f5f57600080fd5b506040519080825280601f01601f191660200182016040528015611f925781602001600182028036833780820191505090505b50905060005b82811015611fff57858181518110611fac57fe5b602001015160f81c60f81b828281518110611fc357fe5b60200101907effffffffffffffffffffffffffffffffffffffffffffffffffffffffffffff1916908160001a9053508080600101915050611f98565b50809250505092915050565b600154600354600254031061218857600060015490506000600254905060005b600083111561207d5760046000838152602001908152602001600020818154811061205257fe5b90600052602060002090600a020160090154905082806001900393505081806001900392505061202b565b60046000838152602001908152602001600020818154811061209b57fe5b90600052602060002090600a0201600460008481526020019081526020016000206000815481106120c857fe5b90600052602060002090600a0201600082015481600001556001820154816001015560028201548160020155600382015481600301556004820181600401908054600181600116156101000203166002900461212592919061297a565b50600582015481600501556006820154816006015560078201548160070155600882015481600801556009820154816009015590505060016004600084815260200190815260200160002080549050111561218457612183826124e8565b5b5050505b565b606061219582611c79565b61219e57600080fd5b60006121a9836125a5565b905060008167ffffffffffffffff811180156121c457600080fd5b506040519080825280602002602001820160405280156121fe57816020015b6121eb612940565b8152602001906001900390816121e35790505b50905060006122108560200151611cc7565b8560200151019050600080600090505b848110156122715761223183611d50565b915060405180604001604052808381526020018481525084828151811061225457fe5b602002602001018190525081830192508080600101915050612220565b5082945050505050919050565b6060600082600001511161229157600080fd5b60006122a08360200151611cc7565b9050600081846000015103905060008167ffffffffffffffff811180156122c657600080fd5b506040519080825280601f01601f1916602001820160405280156122f95781602001600182028036833780820191505090505b5090506000816020019050612315848760200151018285611e08565b81945050505050919050565b60606000600283510267ffffffffffffffff8111801561234057600080fd5b506040519080825280601f01601f1916602001820160405280156123735781602001600182028036833780820191505090505b50905060005b81518110156123d45761238c8185612612565b82828151811061239857fe5b60200101907effffffffffffffffffffffffffffffffffffffffffffffffffffffffffffff1916908160001a9053508080600101915050612379565b5080915050919050565b60008060006123ec86612698565b90506000815167ffffffffffffffff8111801561240857600080fd5b506040519080825280601f01601f19166020018201604052801561243b5781602001600182028036833780820191505090505b50905060008590505b825186018110156124b657600087828151811061245d57fe5b602001015160f81c60f81b905080838884038151811061247957fe5b60200101907effffffffffffffffffffffffffffffffffffffffffffffffffffffffffffff1916908160001a905350508080600101915050612444565b508080519060200120828051906020012014156124d657815192506124db565b600092505b8293505050509392505050565b6000600190505b60046000838152602001908152602001600020805490508110156125a15760046000838152602001908152602001600020818154811061252b57fe5b90600052602060002090600a020160008082016000905560018201600090556002820160009055600382016000905560048201600061256a9190612a0f565b60058201600090556006820160009055600782016000905560088201600090556009820160009055505080806001019150506124ef565b5050565b600080826000015114156125bc576000905061260d565b6000806125cc8460200151611cc7565b84602001510190506000846000015185602001510190505b80821015612606576125f582611d50565b8201915082806001019350506125e4565b8293505050505b919050565b6000806002848161261f57fe5b061461265b576010826002858161263257fe5b048151811061263d57fe5b602001015160f81c60f81b60f81c60ff168161265557fe5b0661268d565b6010826002858161266857fe5b048151811061267357fe5b602001015160f81c60f81b60f81c60ff168161268b57fe5b045b60f81b905092915050565b606080600083511115612844576000806126b3600086612612565b60f81c905060018160ff1614806126cd575060038160ff16145b1561277c57600160028651020367ffffffffffffffff811180156126f057600080fd5b506040519080825280601f01601f1916602001820160405280156127235781602001600182028036833780820191505090505b5092506000612733600187612612565b9050808460008151811061274357fe5b60200101907effffffffffffffffffffffffffffffffffffffffffffffffffffffffffffff1916908160001a90535060019250506127d4565b6002808651020367ffffffffffffffff8111801561279957600080fd5b506040519080825280601f01601f1916602001820160405280156127cc5781602001600182028036833780820191505090505b509250600091505b60008260ff1690505b8351811015612840576127f860028460ff1683030187612612565b84828151811061280457fe5b60200101907effffffffffffffffffffffffffffffffffffffffffffffffffffffffffffff1916908160001a90535080806001019150506127dd565b5050505b80915050919050565b604051806101400160405280600080191681526020016000801916815260200160008019168152602001600080191681526020016060815260200160008152602001600081526020016000801916815260200160008019168152602001600081525090565b828054600181600116156101000203166002900490600052602060002090601f0160209004810192826128e8576000855561292f565b82601f1061290157805160ff191683800117855561292f565b8280016001018555821561292f579182015b8281111561292e578251825591602001919060010190612913565b5b50905061293c9190612a57565b5090565b604051806040016040528060008152602001600081525090565b604051806040016040528061296d612940565b8152602001600081525090565b828054600181600116156101000203166002900490600052602060002090601f0160209004810192826129b057600085556129fe565b82601f106129c157805485556129fe565b828001600101855582156129fe57600052602060002091601f016020900482015b828111156129fd5782548255916001019190600101906129e2565b5b509050612a0b9190612a57565b5090565b50805460018160011615610100020316600290046000825580601f10612a355750612a54565b601f016020900490600052602060002090810190612a539190612a57565b5b50565b5b80821115612a70576000816000905550600101612a58565b509056fea264697066735822122077f2f0f020f96621e3870adff60a80cd18aaa2f55d2eb4c1002534359dbcbbc064736f6c63430007060033",
  "immutableReferences": {},
  "source": "pragma solidity 0.7.6;\n\nimport \"./MerklePatriciaProof.sol\";\nimport \"./RLPReader.sol\";\n// import \"./ethash.sol\";\n\ncontract Relay {\n\n    using RLPReader for RLPReader.RLPItem;\n    using RLPReader for RLPReader.Iterator;\n    using RLPReader for bytes;\n    // Ethash public myEthash;\n    \n    address public owner = msg.sender;\n    \n    uint public k;\n    uint public lastHeight;\n    uint public initialHeight;\n    \n    modifier restricted() {\n        require(\n            msg.sender == owner,\n            \"This function is restricted to the contract's owner\"\n    );\n    _;\n    }\n\n    struct blockHeader{\n        bytes32 parentHash;\n        bytes32 stateRoot;\n        bytes32 txRoot;\n        bytes32 receiptRoot;\n        bytes difficulty;\n        uint height;\n        uint nonce;\n        bytes32 selfHash;\n        bytes32 hashWithoutNonce;\n        uint parentIdx; // parent index in the chain\n    }\n\n    mapping (uint => blockHeader[]) public chain;\n\n    // constructor (Ethash _myEthash, bytes32 _selfHash, uint _height) public {\n    constructor (bytes32 _selfHash, uint _height) public {\n        // myEthash = _myEthash;\n        k = 6; // finality parameter\n        lastHeight = _height;\n        initialHeight = _height;\n        blockHeader memory firstBlockHeader;\n        firstBlockHeader.selfHash = _selfHash;\n        firstBlockHeader.height = _height;\n        chain[_height].push(firstBlockHeader);\n    }\n    \n    bytes public temp;\n    uint256 public uintTemp;\n\n    function parseBlockHeader(bytes memory rawHeader, bytes32 _selfHash, uint parentIdx, \n    uint[] calldata dataSetLookup, uint[] calldata witnessForLookup) public{\n        //first we enter this function\n        blockHeader memory header;\n        RLPReader.Iterator memory item = rawHeader.toRlpItem().iterator();\n        \n        \n        uint idx;\n        \n        while (item.hasNext()) {\n            if (idx == 0) {\n                header.parentHash = bytes32(item.next().toUint());\n            } else if (idx == 3) {\n                header.stateRoot = bytes32(item.next().toUint());\n            } else if (idx == 4) {\n                header.txRoot = bytes32(item.next().toUint());\n            } else if (idx == 5) {\n                header.receiptRoot = bytes32(item.next().toUint());\n            } else if (idx == 7) {\n                // TODO: small changes required (wrong bytes)\n                header.difficulty = item.next().toRlpBytes();\n                temp = header.difficulty;\n                uintTemp = toUint256(temp);\n            } else if (idx == 8) {\n                header.height = item.next().toUint();\n            } else if (idx == 14) {\n                header.nonce = item.next().toUint();\n            } else{\n                item.next();\n            }\n            idx++;\n        }\n        \n        header.selfHash = _selfHash;\n        \n        validateBlockHeader(header, parentIdx, dataSetLookup, witnessForLookup);\n        header.parentIdx = parentIdx;\n        header.hashWithoutNonce = getRlpHeaderHashWithoutNonce(rawHeader);\n        addToChain(header);\n        // sendReward(msg.sender);\n    }\n    \n    function toUint256(bytes memory _bytes)   \n      internal\n      pure\n      returns (uint256 value) {\n    \n        assembly {\n          value := mload(add(_bytes, 0x20))\n        }\n    }\n    \n    function validateBlockHeader(blockHeader memory header, uint parentIdx, \n    uint[] calldata dataSetLookup, uint[] calldata witnessForLookup) internal {\n        require(header.height >= lastHeight - k, \"The block is old\");\n        require(header.height > initialHeight, \"The block is super old\");\n        parentExists(header, parentIdx);\n        require(PoWisDone(header, dataSetLookup, witnessForLookup), 'Wrong PoW');\n    }\n    \n    function addToChain(blockHeader memory header) internal {\n        chain[header.height].push(header);\n        \n        if((header.height) > lastHeight){\n            lastHeight++;\n            pruneChain();\n        }\n    }\n\n    function PoWisDone(blockHeader memory header, uint[] calldata dataSetLookup, uint[] calldata witnessForLookup) internal returns(bool) {\n\n        //dataSetLookup contains elements of the DAG needed for the PoW verification\n        //witnessForLookup needed for verifying the dataSetLookup\n\n        //(uint, bytes32, uint, difficulty, uint[] calldata, uint[] calldata) returns (uint, uint);\n        \n        // uint returnCode;\n        // uint errorInfo;\n        // (returnCode, errorInfo) = myEthash.verifyPoW(header.height, header.hashWithoutNonce, header.nonce, header.difficulty, dataSetLookup, witnessForLookup);\n        \n        \n        // if (returnCode == 0){\n        //     return true;\n        // }\n        // return false;\n        return true;\n    }\n\n    function getRlpHeaderHashWithoutNonce(bytes memory rawHeader) private pure returns (bytes32){\n        // duplicate rlp header and truncate nonce and mixDataHash\n        bytes memory rlpWithoutNonce = copy(rawHeader, rawHeader.length-42);  // 42: length of none+mixHash\n        uint16 rlpHeaderWithoutNonceLength = uint16(rawHeader.length-3-42);  // rlpHeaderLength - 3 prefix bytes (0xf9 + length) - length of nonce and mixHash\n        bytes2 headerLengthBytes = bytes2(rlpHeaderWithoutNonceLength);\n        rlpWithoutNonce[1] = headerLengthBytes[0];\n        rlpWithoutNonce[2] = headerLengthBytes[1];\n\n        return keccak256(rlpWithoutNonce);       \n    }\n    \n    function copy(bytes memory sourceArray, uint newLength) private pure returns (bytes memory) {\n        uint newArraySize = newLength;\n\n        if (newArraySize > sourceArray.length) {\n            newArraySize = sourceArray.length;\n        }\n\n        bytes memory newArray = new bytes(newArraySize);\n\n        for(uint i = 0; i < newArraySize; i++){\n            newArray[i] = sourceArray[i];\n        }\n\n        return newArray;\n    }\n    \n    function parentExists(blockHeader memory header, uint parentIdx) internal {\n        require(chain[header.height-1][parentIdx].selfHash == header.parentHash, \"parent doesn't exist\");\n    }\n\n    function pruneChain() internal {\n        if ((lastHeight - initialHeight) >= k){\n            uint idx = k;\n            uint currentHeight = lastHeight;\n            uint stableIdx = 0;\n            while (idx > 0) {\n                stableIdx = chain[currentHeight][stableIdx].parentIdx;\n                idx--;\n                currentHeight--;\n            }\n            chain[currentHeight][0] = chain[currentHeight][stableIdx];\n            // blockHeader memory stableHeader = chain[currentHeight][stableIdx];\n            if(chain[currentHeight].length > 1){\n                deleteHeight(currentHeight);\n            }\n        }\n    }\n\n    function deleteHeight(uint height) internal {\n        uint idx = 1;\n        while(idx < chain[height].length){\n            delete chain[height][idx];\n            idx++;\n        }\n        // delete chain[height];\n    }\n    \n    function sendReward(address relayerAddress) internal {\n\n        // call ERC20 token contract to transfer reward tokens to the relayer\n    }\n    \n    function salam() public {\n        \n    }\n    \n    function checkTxProof(bytes memory value, uint blockHeight, bytes memory encodedPath, bytes memory rlpParentNodes) public returns (bool) {\n        // add fee for checking transaction\n        require(blockHeight < lastHeight - k, \"Block is not finilized yet\"); // require the block to be finilized \n        bytes32 txRoot = chain[blockHeight][0].txRoot;\n        // TxRootEvent(txRoot);\n        return checkInclusionProof(value, encodedPath, rlpParentNodes, txRoot);\n    }\n\n    function checkStateProof(bytes memory value, uint blockHeight, bytes memory encodedPath, bytes memory rlpParentNodes) public returns (bool) {\n        require(blockHeight < lastHeight - k, \"Block is not finilized yet\"); // require the block to be finilized \n        bytes32 stateRoot = chain[blockHeight][0].stateRoot;\n        return checkInclusionProof(value, encodedPath, rlpParentNodes, stateRoot);\n    }\n\n    function checkReceiptProof(bytes memory value, uint blockHeight, bytes memory encodedPath, bytes memory rlpParentNodes) public returns (bool) {\n        require(blockHeight < lastHeight - k, \"Block is not finilized yet\"); // require the block to be finilized \n        bytes32 receiptRoot = chain[blockHeight][0].receiptRoot;\n        return checkInclusionProof(value, encodedPath, rlpParentNodes, receiptRoot);\n    }\n  \n    function checkInclusionProof(bytes memory value, bytes memory encodedPath, bytes memory rlpParentNodes, bytes32 root) internal returns(bool) {\n         uint result;\n         result = MerklePatriciaProof.verify(value, encodedPath, rlpParentNodes, root);\n         if (result == 0){\n             return true;\n         }\n         return false;\n    }\n\n    function getParentIdxNum(uint height) public returns (uint){\n        return chain[height - 1].length;\n    }\n\n    function parseTransactionAmount (bytes memory rawData) public returns(uint256){\n        bytes memory transactionData = parseRLP(rawData);\n        return parseAmount(transactionData);\n    }\n    \n    function parseRLP(bytes memory rlpData) internal returns(bytes memory){\n        RLPReader.RLPItem memory item = rlpData.toRlpItem();\n        uint idx;\n        idx = 0;\n        RLPReader.RLPItem[] memory itemList = item.toList();\n        return itemList[5].toBytes();\n    }\n    \n    function parseAmount(bytes memory data) internal returns(uint256) {\n        uint256 parsedValue;\n        assembly {\n    \t    parsedValue := mload(add(data, 36))\n        }\n        return parsedValue;\n    }\n}\n",
  "sourcePath": "/home/niusha/Desktop/Relay/relay/src/contracts/Relay.sol",
  "compiler": {
    "name": "solc",
    "version": "0.7.6+commit.7338295f.Emscripten.clang"
  },
  "schemaVersion": "3.3.4",
  "updatedAt": "2021-04-11T20:57:06.307Z",
  "networkType": "ethereum",
  "devdoc": {
    "kind": "dev",
    "methods": {},
    "version": 1
  },
  "userdoc": {
    "kind": "user",
    "methods": {},
    "version": 1
  }
}