{
  "contractName": "Relay",
  "abi": [
    {
      "inputs": [
        {
          "internalType": "bytes32",
          "name": "_selfHash",
          "type": "bytes32"
        },
        {
          "internalType": "uint256",
          "name": "_height",
          "type": "uint256"
        }
      ],
      "stateMutability": "nonpayable",
      "type": "constructor"
    },
    {
      "inputs": [
        {
          "internalType": "uint256",
          "name": "",
          "type": "uint256"
        },
        {
          "internalType": "uint256",
          "name": "",
          "type": "uint256"
        }
      ],
      "name": "chain",
      "outputs": [
        {
          "internalType": "bytes32",
          "name": "parentHash",
          "type": "bytes32"
        },
        {
          "internalType": "bytes32",
          "name": "stateRoot",
          "type": "bytes32"
        },
        {
          "internalType": "bytes32",
          "name": "txRoot",
          "type": "bytes32"
        },
        {
          "internalType": "bytes32",
          "name": "receiptRoot",
          "type": "bytes32"
        },
        {
          "internalType": "bytes",
          "name": "difficulty",
          "type": "bytes"
        },
        {
          "internalType": "uint256",
          "name": "height",
          "type": "uint256"
        },
        {
          "internalType": "uint256",
          "name": "nonce",
          "type": "uint256"
        },
        {
          "internalType": "bytes32",
          "name": "selfHash",
          "type": "bytes32"
        },
        {
          "internalType": "bytes32",
          "name": "hashWithoutNonce",
          "type": "bytes32"
        },
        {
          "internalType": "uint256",
          "name": "parentIdx",
          "type": "uint256"
        }
      ],
      "stateMutability": "view",
      "type": "function",
      "constant": true
    },
    {
      "inputs": [],
      "name": "initialHeight",
      "outputs": [
        {
          "internalType": "uint256",
          "name": "",
          "type": "uint256"
        }
      ],
      "stateMutability": "view",
      "type": "function",
      "constant": true
    },
    {
      "inputs": [],
      "name": "k",
      "outputs": [
        {
          "internalType": "uint256",
          "name": "",
          "type": "uint256"
        }
      ],
      "stateMutability": "view",
      "type": "function",
      "constant": true
    },
    {
      "inputs": [],
      "name": "lastHeight",
      "outputs": [
        {
          "internalType": "uint256",
          "name": "",
          "type": "uint256"
        }
      ],
      "stateMutability": "view",
      "type": "function",
      "constant": true
    },
    {
      "inputs": [],
      "name": "owner",
      "outputs": [
        {
          "internalType": "address",
          "name": "",
          "type": "address"
        }
      ],
      "stateMutability": "view",
      "type": "function",
      "constant": true
    },
    {
      "inputs": [],
      "name": "temp",
      "outputs": [
        {
          "internalType": "bytes",
          "name": "",
          "type": "bytes"
        }
      ],
      "stateMutability": "view",
      "type": "function",
      "constant": true
    },
    {
      "inputs": [],
      "name": "uintTemp",
      "outputs": [
        {
          "internalType": "uint256",
          "name": "",
          "type": "uint256"
        }
      ],
      "stateMutability": "view",
      "type": "function",
      "constant": true
    },
    {
      "inputs": [
        {
          "internalType": "bytes",
          "name": "rawHeader",
          "type": "bytes"
        },
        {
          "internalType": "bytes32",
          "name": "_selfHash",
          "type": "bytes32"
        },
        {
          "internalType": "uint256",
          "name": "parentIdx",
          "type": "uint256"
        },
        {
          "internalType": "uint256[]",
          "name": "dataSetLookup",
          "type": "uint256[]"
        },
        {
          "internalType": "uint256[]",
          "name": "witnessForLookup",
          "type": "uint256[]"
        }
      ],
      "name": "parseBlockHeader",
      "outputs": [],
      "stateMutability": "nonpayable",
      "type": "function"
    },
    {
      "inputs": [
        {
          "internalType": "bytes",
          "name": "value",
          "type": "bytes"
        },
        {
          "internalType": "uint256",
          "name": "blockHeight",
          "type": "uint256"
        },
        {
          "internalType": "bytes",
          "name": "encodedPath",
          "type": "bytes"
        },
        {
          "internalType": "bytes",
          "name": "rlpParentNodes",
          "type": "bytes"
        }
      ],
      "name": "checkTxProof",
      "outputs": [
        {
          "internalType": "bool",
          "name": "",
          "type": "bool"
        }
      ],
      "stateMutability": "nonpayable",
      "type": "function"
    },
    {
      "inputs": [
        {
          "internalType": "bytes",
          "name": "value",
          "type": "bytes"
        },
        {
          "internalType": "uint256",
          "name": "blockHeight",
          "type": "uint256"
        },
        {
          "internalType": "bytes",
          "name": "encodedPath",
          "type": "bytes"
        },
        {
          "internalType": "bytes",
          "name": "rlpParentNodes",
          "type": "bytes"
        }
      ],
      "name": "checkStateProof",
      "outputs": [
        {
          "internalType": "bool",
          "name": "",
          "type": "bool"
        }
      ],
      "stateMutability": "nonpayable",
      "type": "function"
    },
    {
      "inputs": [
        {
          "internalType": "bytes",
          "name": "value",
          "type": "bytes"
        },
        {
          "internalType": "uint256",
          "name": "blockHeight",
          "type": "uint256"
        },
        {
          "internalType": "bytes",
          "name": "encodedPath",
          "type": "bytes"
        },
        {
          "internalType": "bytes",
          "name": "rlpParentNodes",
          "type": "bytes"
        }
      ],
      "name": "checkReceiptProof",
      "outputs": [
        {
          "internalType": "bool",
          "name": "",
          "type": "bool"
        }
      ],
      "stateMutability": "nonpayable",
      "type": "function"
    },
    {
      "inputs": [
        {
          "internalType": "uint256",
          "name": "height",
          "type": "uint256"
        }
      ],
      "name": "getParentIdxNum",
      "outputs": [
        {
          "internalType": "uint256",
          "name": "",
          "type": "uint256"
        }
      ],
      "stateMutability": "nonpayable",
      "type": "function"
    },
    {
      "inputs": [
        {
          "internalType": "bytes",
          "name": "rawData",
          "type": "bytes"
        }
      ],
      "name": "parseTransactionAmount",
      "outputs": [
        {
          "internalType": "uint256",
          "name": "",
          "type": "uint256"
        }
      ],
      "stateMutability": "nonpayable",
      "type": "function"
    }
  ],
  "bytecode": "0x6080604052336000806101000a81548173ffffffffffffffffffffffffffffffffffffffff021916908373ffffffffffffffffffffffffffffffffffffffff1602179055503480156200005157600080fd5b5060405162002d3638038062002d36833981810160405260408110156200007757600080fd5b810190808051906020019092919080519060200190929190505050600180819055508060028190555080600381905550620000b162000188565b828160e0018181525050818160a0018181525050600460008381526020019081526020016000208190806001815401808255809150506001900390600052602060002090600a020160009091909190915060008201518160000155602082015181600101556040820151816002015560608201518160030155608082015181600401908051906020019062000148929190620001ed565b5060a0820151816005015560c0820151816006015560e08201518160070155610100820151816008015561012082015181600901555050505050620002a3565b604051806101400160405280600080191681526020016000801916815260200160008019168152602001600080191681526020016060815260200160008152602001600081526020016000801916815260200160008019168152602001600081525090565b828054600181600116156101000203166002900490600052602060002090601f01602090048101928262000225576000855562000271565b82601f106200024057805160ff191683800117855562000271565b8280016001018555821562000271579182015b828111156200027057825182559160200191906001019062000253565b5b50905062000280919062000284565b5090565b5b808211156200029f57600081600090555060010162000285565b5090565b612a8380620002b36000396000f3fe608060405234801561001057600080fd5b50600436106100cf5760003560e01c80638da5cb5b1161008c578063b4f40c6111610066578063b4f40c6114610935578063c52d572714610953578063e2761af014610971578063e4aa8da91461098f576100cf565b80638da5cb5b146106b9578063983fe872146106ed578063af2d85e914610866576100cf565b80631ea77144146100d4578063227d3fb4146101c457806325159aa9146103cd578063325586dc146103eb578063673402e5146105f45780637f5112fe14610677575b600080fd5b61010a600480360360408110156100ea57600080fd5b810190808035906020019092919080359060200190929190505050610b98565b604051808b81526020018a815260200189815260200188815260200180602001878152602001868152602001858152602001848152602001838152602001828103825288818151815260200191508051906020019080838360005b83811015610180578082015181840152602081019050610165565b50505050905090810190601f1680156101ad5780820380516001836020036101000a031916815260200191505b509b50505050505050505050505060405180910390f35b6103b5600480360360808110156101da57600080fd5b81019080803590602001906401000000008111156101f757600080fd5b82018360208201111561020957600080fd5b8035906020019184600183028401116401000000008311171561022b57600080fd5b91908080601f016020809104026020016040519081016040528093929190818152602001838380828437600081840152601f19601f820116905080830192505050505050509192919290803590602001909291908035906020019064010000000081111561029857600080fd5b8201836020820111156102aa57600080fd5b803590602001918460018302840111640100000000831117156102cc57600080fd5b91908080601f016020809104026020016040519081016040528093929190818152602001838380828437600081840152601f19601f8201169050808301925050505050505091929192908035906020019064010000000081111561032f57600080fd5b82018360208201111561034157600080fd5b8035906020019184600183028401116401000000008311171561036357600080fd5b91908080601f016020809104026020016040519081016040528093929190818152602001838380828437600081840152601f19601f820116905080830192505050505050509192919290505050610ca1565b60405180821515815260200191505060405180910390f35b6103d5610d6a565b6040518082815260200191505060405180910390f35b6105dc6004803603608081101561040157600080fd5b810190808035906020019064010000000081111561041e57600080fd5b82018360208201111561043057600080fd5b8035906020019184600183028401116401000000008311171561045257600080fd5b91908080601f016020809104026020016040519081016040528093929190818152602001838380828437600081840152601f19601f82011690508083019250505050505050919291929080359060200190929190803590602001906401000000008111156104bf57600080fd5b8201836020820111156104d157600080fd5b803590602001918460018302840111640100000000831117156104f357600080fd5b91908080601f016020809104026020016040519081016040528093929190818152602001838380828437600081840152601f19601f8201169050808301925050505050505091929192908035906020019064010000000081111561055657600080fd5b82018360208201111561056857600080fd5b8035906020019184600183028401116401000000008311171561058a57600080fd5b91908080601f016020809104026020016040519081016040528093929190818152602001838380828437600081840152601f19601f820116905080830192505050505050509192919290505050610d70565b60405180821515815260200191505060405180910390f35b6105fc610e39565b6040518080602001828103825283818151815260200191508051906020019080838360005b8381101561063c578082015181840152602081019050610621565b50505050905090810190601f1680156106695780820380516001836020036101000a031916815260200191505b509250505060405180910390f35b6106a36004803603602081101561068d57600080fd5b8101908080359060200190929190505050610ed7565b6040518082815260200191505060405180910390f35b6106c1610efa565b604051808273ffffffffffffffffffffffffffffffffffffffff16815260200191505060405180910390f35b610864600480360360a081101561070357600080fd5b810190808035906020019064010000000081111561072057600080fd5b82018360208201111561073257600080fd5b8035906020019184600183028401116401000000008311171561075457600080fd5b91908080601f016020809104026020016040519081016040528093929190818152602001838380828437600081840152601f19601f8201169050808301925050505050505091929192908035906020019092919080359060200190929190803590602001906401000000008111156107cb57600080fd5b8201836020820111156107dd57600080fd5b803590602001918460208302840111640100000000831117156107ff57600080fd5b90919293919293908035906020019064010000000081111561082057600080fd5b82018360208201111561083257600080fd5b8035906020019184602083028401116401000000008311171561085457600080fd5b9091929391929390505050610f1e565b005b61091f6004803603602081101561087c57600080fd5b810190808035906020019064010000000081111561089957600080fd5b8201836020820111156108ab57600080fd5b803590602001918460018302840111640100000000831117156108cd57600080fd5b91908080601f016020809104026020016040519081016040528093929190818152602001838380828437600081840152601f19601f82011690508083019250505050505050919291929050505061119c565b6040518082815260200191505060405180910390f35b61093d6111bb565b6040518082815260200191505060405180910390f35b61095b6111c1565b6040518082815260200191505060405180910390f35b6109796111c7565b6040518082815260200191505060405180910390f35b610b80600480360360808110156109a557600080fd5b81019080803590602001906401000000008111156109c257600080fd5b8201836020820111156109d457600080fd5b803590602001918460018302840111640100000000831117156109f657600080fd5b91908080601f016020809104026020016040519081016040528093929190818152602001838380828437600081840152601f19601f8201169050808301925050505050505091929192908035906020019092919080359060200190640100000000811115610a6357600080fd5b820183602082011115610a7557600080fd5b80359060200191846001830284011164010000000083111715610a9757600080fd5b91908080601f016020809104026020016040519081016040528093929190818152602001838380828437600081840152601f19601f82011690508083019250505050505050919291929080359060200190640100000000811115610afa57600080fd5b820183602082011115610b0c57600080fd5b80359060200191846001830284011164010000000083111715610b2e57600080fd5b91908080601f016020809104026020016040519081016040528093929190818152602001838380828437600081840152601f19601f8201169050808301925050505050505091929192905050506111cd565b60405180821515815260200191505060405180910390f35b60046020528160005260406000208181548110610bb457600080fd5b90600052602060002090600a020160009150915050806000015490806001015490806002015490806003015490806004018054600181600116156101000203166002900480601f016020809104026020016040519081016040528092919081815260200182805460018160011615610100020316600290048015610c795780601f10610c4e57610100808354040283529160200191610c79565b820191906000526020600020905b815481529060010190602001808311610c5c57829003601f168201915b505050505090806005015490806006015490806007015490806008015490806009015490508a565b6000600154600254038410610d1e576040517f08c379a000000000000000000000000000000000000000000000000000000000815260040180806020018281038252601a8152602001807f426c6f636b206973206e6f742066696e696c697a65642079657400000000000081525060200191505060405180910390fd5b600060046000868152602001908152602001600020600081548110610d3f57fe5b90600052602060002090600a0201600201549050610d5f86858584611296565b915050949350505050565b60025481565b6000600154600254038410610ded576040517f08c379a000000000000000000000000000000000000000000000000000000000815260040180806020018281038252601a8152602001807f426c6f636b206973206e6f742066696e696c697a65642079657400000000000081525060200191505060405180910390fd5b600060046000868152602001908152602001600020600081548110610e0e57fe5b90600052602060002090600a0201600101549050610e2e86858584611296565b915050949350505050565b60058054600181600116156101000203166002900480601f016020809104026020016040519081016040528092919081815260200182805460018160011615610100020316600290048015610ecf5780601f10610ea457610100808354040283529160200191610ecf565b820191906000526020600020905b815481529060010190602001808311610eb257829003601f168201915b505050505081565b600060046000600184038152602001908152602001600020805490509050919050565b60008054906101000a900473ffffffffffffffffffffffffffffffffffffffff1681565b610f26612826565b6000610f39610f348a6112c8565b6112f6565b905060005b610f4782611344565b15611151576000811415610f7757610f66610f6183611367565b6113c1565b60001b836000018181525050611144565b6003811415610fa257610f91610f8c83611367565b6113c1565b60001b836020018181525050611143565b6004811415610fcd57610fbc610fb783611367565b6113c1565b60001b836040018181525050611142565b6005811415610ff857610fe7610fe283611367565b6113c1565b60001b836060018181525050611141565b60078114156110e35761101261100d83611367565b611505565b836080018190525082608001516005908051906020019061103492919061288b565b506110d860058054600181600116156101000203166002900480601f0160208091040260200160405190810160405280929190818152602001828054600181600116156101000203166002900480156110ce5780601f106110a3576101008083540402835291602001916110ce565b820191906000526020600020905b8154815290600101906020018083116110b157829003601f168201915b5050505050611593565b600681905550611140565b600881141561110b576110fd6110f883611367565b6113c1565b8360a001818152505061113f565b600e8114156111335761112561112083611367565b6113c1565b8360c001818152505061113e565b61113c82611367565b505b5b5b5b5b5b5b8080600101915050610f3e565b888360e00181815250506111698389898989896115a1565b878361012001818152505061117d8a61172d565b8361010001818152505061119083611800565b50505050505050505050565b6000806111a8836118e8565b90506111b38161192c565b915050919050565b60015481565b60065481565b60035481565b600060015460025403841061124a576040517f08c379a000000000000000000000000000000000000000000000000000000000815260040180806020018281038252601a8152602001807f426c6f636b206973206e6f742066696e696c697a65642079657400000000000081525060200191505060405180910390fd5b60006004600086815260200190815260200160002060008154811061126b57fe5b90600052602060002090600a020160030154905061128b86858584611296565b915050949350505050565b6000806112a58686868661193f565b905060008114156112ba5760019150506112c0565b60009150505b949350505050565b6112d0612919565b600060208301905060405180604001604052808451815260200182815250915050919050565b6112fe612933565b61130782611c52565b61131057600080fd5b600061131f8360200151611ca0565b8360200151019050604051806040016040528084815260200182815250915050919050565b600080826000015190508060000151816020015101836020015110915050919050565b61136f612919565b61137882611344565b61138157600080fd5b600082602001519050600061139582611d29565b905080820184602001818152505060405180604001604052808281526020018381525092505050919050565b60008082600001511161143c576040517f08c379a00000000000000000000000000000000000000000000000000000000081526004018080602001828103825260058152602001807f73686f727400000000000000000000000000000000000000000000000000000081525060200191505060405180910390fd5b6021826000015111156114b7576040517f08c379a00000000000000000000000000000000000000000000000000000000081526004018080602001828103825260048152602001807f6c6f6e670000000000000000000000000000000000000000000000000000000081525060200191505060405180910390fd5b60006114c68360200151611ca0565b905060008184600001510390506000808386602001510190508051915060208310156114f957826020036101000a820491505b81945050505050919050565b60606000826000015167ffffffffffffffff8111801561152457600080fd5b506040519080825280601f01601f1916602001820160405280156115575781602001600182028036833780820191505090505b50905060008151141561156d578091505061158e565b60008160200190506115888460200151828660000151611de1565b81925050505b919050565b600060208201519050919050565b600154600254038660a001511015611621576040517f08c379a00000000000000000000000000000000000000000000000000000000081526004018080602001828103825260108152602001807f54686520626c6f636b206973206f6c640000000000000000000000000000000081525060200191505060405180910390fd5b6003548660a001511161169c576040517f08c379a00000000000000000000000000000000000000000000000000000000081526004018080602001828103825260168152602001807f54686520626c6f636b206973207375706572206f6c640000000000000000000081525060200191505060405180910390fd5b6116a68686611e48565b6116b38685858585611efb565b611725576040517f08c379a00000000000000000000000000000000000000000000000000000000081526004018080602001828103825260098152602001807f57726f6e6720506f57000000000000000000000000000000000000000000000081525060200191505060405180910390fd5b505050505050565b60008061173e83602a855103611f0a565b90506000602a600385510303905060008160f01b90508060006002811061176157fe5b1a60f81b8360018151811061177257fe5b60200101907effffffffffffffffffffffffffffffffffffffffffffffffffffffffffffff1916908160001a905350806001600281106117ae57fe5b1a60f81b836002815181106117bf57fe5b60200101907effffffffffffffffffffffffffffffffffffffffffffffffffffffffffffff1916908160001a90535082805190602001209350505050919050565b600460008260a0015181526020019081526020016000208190806001815401808255809150506001900390600052602060002090600a020160009091909190915060008201518160000155602082015181600101556040820151816002015560608201518160030155608082015181600401908051906020019061188592919061288b565b5060a0820151816005015560c0820151816006015560e082015181600701556101008201518160080155610120820151816009015550506002548160a0015111156118e5576002600081548092919060010191905055506118e4611fe4565b5b50565b606060006118f5836112c8565b905060008061190383612163565b90506119228160058151811061191557fe5b6020026020010151612257565b9350505050919050565b6000806024830151905080915050919050565b60008061194b846112c8565b9050600061195882612163565b9050606080600086905060008061196e8b6122fa565b905060008151141561198a576001975050505050505050611c4a565b60005b8651811015611c415781518311156119b057600298505050505050505050611c4a565b6119cc8782815181106119bf57fe5b6020026020010151612257565b955085805190602001208414611a36577ff463ca2f52ee277cdcc79dcfcda4e12c1d04d2ba02aaf9a8dde7287a2eb6769a848780519060200120604051808381526020018281526020019250505060405180910390a1806103e80198505050505050505050611c4a565b6000611a41876112c8565b9050611a4c81612163565b9550601186511415611b24578251841415611ab7578d80519060200120611a8687601081518110611a7957fe5b6020026020010151612257565b805190602001201415611aa55760009950505050505050505050611c4a565b60049950505050505050505050611c4a565b6000838581518110611ac557fe5b602001015160f81c60f81b60f81c905060108160ff161115611af45760059a5050505050505050505050611c4a565b611b13878260ff1681518110611b0657fe5b60200260200101516113c1565b60001b955060018501945050611c33565b600286511415611c2057611b55611b4e87600081518110611b4157fe5b6020026020010151612257565b84866123b7565b840193508251841415611bb8578d80519060200120611b8787600181518110611b7a57fe5b6020026020010151612257565b805190602001201415611ba65760009950505050505050505050611c4a565b60069950505050505050505050611c4a565b6000611be1611bda88600081518110611bcd57fe5b6020026020010151612257565b85876123b7565b1415611bf95760079950505050505050505050611c4a565b611c1686600181518110611c0957fe5b60200260200101516113c1565b60001b9450611c32565b60089950505050505050505050611c4a565b5b50808060010191505061198d565b50505050505050505b949350505050565b60008082600001511415611c695760009050611c9b565b60008083602001519050805160001a915060c060ff168260ff161015611c9457600092505050611c9b565b6001925050505b919050565b600080825160001a9050608060ff16811015611cc0576000915050611d24565b60b860ff16811080611ce5575060c060ff168110158015611ce4575060f860ff1681105b5b15611cf4576001915050611d24565b60c060ff16811015611d145760018060b80360ff16820301915050611d24565b60018060f80360ff168203019150505b919050565b6000806000835160001a9050608060ff16811015611d4a5760019150611dd7565b60b860ff16811015611d67576001608060ff168203019150611dd6565b60c060ff16811015611d975760b78103600185019450806020036101000a85510460018201810193505050611dd5565b60f860ff16811015611db457600160c060ff168203019150611dd4565b60f78103600185019450806020036101000a855104600182018101935050505b5b5b5b8192505050919050565b6000811415611def57611e43565b5b602060ff168110611e1f5782518252602060ff1683019250602060ff1682019150602060ff1681039050611df0565b6000600182602060ff16036101000a03905080198451168184511681811785525050505b505050565b81600001516004600060018560a001510381526020019081526020016000208281548110611e7257fe5b90600052602060002090600a02016007015414611ef7576040517f08c379a00000000000000000000000000000000000000000000000000000000081526004018080602001828103825260148152602001807f706172656e7420646f65736e277420657869737400000000000000000000000081525060200191505060405180910390fd5b5050565b60006001905095945050505050565b606060008290508351811115611f1f57835190505b60008167ffffffffffffffff81118015611f3857600080fd5b506040519080825280601f01601f191660200182016040528015611f6b5781602001600182028036833780820191505090505b50905060005b82811015611fd857858181518110611f8557fe5b602001015160f81c60f81b828281518110611f9c57fe5b60200101907effffffffffffffffffffffffffffffffffffffffffffffffffffffffffffff1916908160001a9053508080600101915050611f71565b50809250505092915050565b600154600354600254031061216157600060015490506000600254905060005b60008311156120565760046000838152602001908152602001600020818154811061202b57fe5b90600052602060002090600a0201600901549050828060019003935050818060019003925050612004565b60046000838152602001908152602001600020818154811061207457fe5b90600052602060002090600a0201600460008481526020019081526020016000206000815481106120a157fe5b90600052602060002090600a020160008201548160000155600182015481600101556002820154816002015560038201548160030155600482018160040190805460018160011615610100020316600290046120fe929190612953565b50600582015481600501556006820154816006015560078201548160070155600882015481600801556009820154816009015590505060016004600084815260200190815260200160002080549050111561215d5761215c826124c1565b5b5050505b565b606061216e82611c52565b61217757600080fd5b60006121828361257e565b905060008167ffffffffffffffff8111801561219d57600080fd5b506040519080825280602002602001820160405280156121d757816020015b6121c4612919565b8152602001906001900390816121bc5790505b50905060006121e98560200151611ca0565b8560200151019050600080600090505b8481101561224a5761220a83611d29565b915060405180604001604052808381526020018481525084828151811061222d57fe5b6020026020010181905250818301925080806001019150506121f9565b5082945050505050919050565b6060600082600001511161226a57600080fd5b60006122798360200151611ca0565b9050600081846000015103905060008167ffffffffffffffff8111801561229f57600080fd5b506040519080825280601f01601f1916602001820160405280156122d25781602001600182028036833780820191505090505b50905060008160200190506122ee848760200151018285611de1565b81945050505050919050565b60606000600283510267ffffffffffffffff8111801561231957600080fd5b506040519080825280601f01601f19166020018201604052801561234c5781602001600182028036833780820191505090505b50905060005b81518110156123ad5761236581856125eb565b82828151811061237157fe5b60200101907effffffffffffffffffffffffffffffffffffffffffffffffffffffffffffff1916908160001a9053508080600101915050612352565b5080915050919050565b60008060006123c586612671565b90506000815167ffffffffffffffff811180156123e157600080fd5b506040519080825280601f01601f1916602001820160405280156124145781602001600182028036833780820191505090505b50905060008590505b8251860181101561248f57600087828151811061243657fe5b602001015160f81c60f81b905080838884038151811061245257fe5b60200101907effffffffffffffffffffffffffffffffffffffffffffffffffffffffffffff1916908160001a90535050808060010191505061241d565b508080519060200120828051906020012014156124af57815192506124b4565b600092505b8293505050509392505050565b6000600190505b600460008381526020019081526020016000208054905081101561257a5760046000838152602001908152602001600020818154811061250457fe5b90600052602060002090600a020160008082016000905560018201600090556002820160009055600382016000905560048201600061254391906129e8565b60058201600090556006820160009055600782016000905560088201600090556009820160009055505080806001019150506124c8565b5050565b6000808260000151141561259557600090506125e6565b6000806125a58460200151611ca0565b84602001510190506000846000015185602001510190505b808210156125df576125ce82611d29565b8201915082806001019350506125bd565b8293505050505b919050565b600080600284816125f857fe5b0614612634576010826002858161260b57fe5b048151811061261657fe5b602001015160f81c60f81b60f81c60ff168161262e57fe5b06612666565b6010826002858161264157fe5b048151811061264c57fe5b602001015160f81c60f81b60f81c60ff168161266457fe5b045b60f81b905092915050565b60608060008351111561281d5760008061268c6000866125eb565b60f81c905060018160ff1614806126a6575060038160ff16145b1561275557600160028651020367ffffffffffffffff811180156126c957600080fd5b506040519080825280601f01601f1916602001820160405280156126fc5781602001600182028036833780820191505090505b509250600061270c6001876125eb565b9050808460008151811061271c57fe5b60200101907effffffffffffffffffffffffffffffffffffffffffffffffffffffffffffff1916908160001a90535060019250506127ad565b6002808651020367ffffffffffffffff8111801561277257600080fd5b506040519080825280601f01601f1916602001820160405280156127a55781602001600182028036833780820191505090505b509250600091505b60008260ff1690505b8351811015612819576127d160028460ff16830301876125eb565b8482815181106127dd57fe5b60200101907effffffffffffffffffffffffffffffffffffffffffffffffffffffffffffff1916908160001a90535080806001019150506127b6565b5050505b80915050919050565b604051806101400160405280600080191681526020016000801916815260200160008019168152602001600080191681526020016060815260200160008152602001600081526020016000801916815260200160008019168152602001600081525090565b828054600181600116156101000203166002900490600052602060002090601f0160209004810192826128c15760008555612908565b82601f106128da57805160ff1916838001178555612908565b82800160010185558215612908579182015b828111156129075782518255916020019190600101906128ec565b5b5090506129159190612a30565b5090565b604051806040016040528060008152602001600081525090565b6040518060400160405280612946612919565b8152602001600081525090565b828054600181600116156101000203166002900490600052602060002090601f01602090048101928261298957600085556129d7565b82601f1061299a57805485556129d7565b828001600101855582156129d757600052602060002091601f016020900482015b828111156129d65782548255916001019190600101906129bb565b5b5090506129e49190612a30565b5090565b50805460018160011615610100020316600290046000825580601f10612a0e5750612a2d565b601f016020900490600052602060002090810190612a2c9190612a30565b5b50565b5b80821115612a49576000816000905550600101612a31565b509056fea26469706673582212205304f06bba289aab65a83ca83b09d38318569fa6ae23f5aff5bd4551f358376c64736f6c63430007060033",
  "immutableReferences": {},
  "source": "pragma solidity 0.7.6;\n\nimport \"./MerklePatriciaProof.sol\";\nimport \"./RLPReader.sol\";\n// import \"./ethash.sol\";\n\ncontract Relay {\n\n    using RLPReader for RLPReader.RLPItem;\n    using RLPReader for RLPReader.Iterator;\n    using RLPReader for bytes;\n    // Ethash public myEthash;\n    \n    address public owner = msg.sender;\n    \n    uint public k;\n    uint public lastHeight;\n    uint public initialHeight;\n    \n    modifier restricted() {\n        require(\n            msg.sender == owner,\n            \"This function is restricted to the contract's owner\"\n    );\n    _;\n    }\n\n    struct blockHeader{\n        bytes32 parentHash;\n        bytes32 stateRoot;\n        bytes32 txRoot;\n        bytes32 receiptRoot;\n        bytes difficulty;\n        uint height;\n        uint nonce;\n        bytes32 selfHash;\n        bytes32 hashWithoutNonce;\n        uint parentIdx; // parent index in the chain\n    }\n\n    mapping (uint => blockHeader[]) public chain;\n\n    // constructor (Ethash _myEthash, bytes32 _selfHash, uint _height) public {\n    constructor (bytes32 _selfHash, uint _height) public {\n        // myEthash = _myEthash;\n        k = 1; // finality parameter\n        lastHeight = _height;\n        initialHeight = _height;\n        blockHeader memory firstBlockHeader;\n        firstBlockHeader.selfHash = _selfHash;\n        firstBlockHeader.height = _height;\n        chain[_height].push(firstBlockHeader);\n    }\n    \n    bytes public temp;\n    uint256 public uintTemp;\n\n    function parseBlockHeader(bytes memory rawHeader, bytes32 _selfHash, uint parentIdx, \n    uint[] calldata dataSetLookup, uint[] calldata witnessForLookup) public{\n        //first we enter this function\n        blockHeader memory header;\n        RLPReader.Iterator memory item = rawHeader.toRlpItem().iterator();\n        \n        \n        uint idx;\n        \n        while (item.hasNext()) {\n            if (idx == 0) {\n                header.parentHash = bytes32(item.next().toUint());\n            } else if (idx == 3) {\n                header.stateRoot = bytes32(item.next().toUint());\n            } else if (idx == 4) {\n                header.txRoot = bytes32(item.next().toUint());\n            } else if (idx == 5) {\n                header.receiptRoot = bytes32(item.next().toUint());\n            } else if (idx == 7) {\n                // TODO: small changes required (wrong bytes)\n                header.difficulty = item.next().toRlpBytes();\n                temp = header.difficulty;\n                uintTemp = toUint256(temp);\n            } else if (idx == 8) {\n                header.height = item.next().toUint();\n            } else if (idx == 14) {\n                header.nonce = item.next().toUint();\n            } else{\n                item.next();\n            }\n            idx++;\n        }\n        \n        header.selfHash = _selfHash;\n        \n        validateBlockHeader(header, parentIdx, dataSetLookup, witnessForLookup);\n        header.parentIdx = parentIdx;\n        header.hashWithoutNonce = getRlpHeaderHashWithoutNonce(rawHeader);\n        addToChain(header);\n        // sendReward(msg.sender);\n    }\n    \n    function toUint256(bytes memory _bytes)   \n      internal\n      pure\n      returns (uint256 value) {\n    \n        assembly {\n          value := mload(add(_bytes, 0x20))\n        }\n    }\n    \n    function validateBlockHeader(blockHeader memory header, uint parentIdx, \n    uint[] calldata dataSetLookup, uint[] calldata witnessForLookup) internal {\n        require(header.height >= lastHeight - k, \"The block is old\");\n        require(header.height > initialHeight, \"The block is super old\");\n        parentExists(header, parentIdx);\n        require(PoWisDone(header, dataSetLookup, witnessForLookup), 'Wrong PoW');\n    }\n    \n    function addToChain(blockHeader memory header) internal {\n        chain[header.height].push(header);\n        \n        if((header.height) > lastHeight){\n            lastHeight++;\n            pruneChain();\n        }\n    }\n\n    function PoWisDone(blockHeader memory header, uint[] calldata dataSetLookup, uint[] calldata witnessForLookup) internal returns(bool) {\n\n        //dataSetLookup contains elements of the DAG needed for the PoW verification\n        //witnessForLookup needed for verifying the dataSetLookup\n\n        //(uint, bytes32, uint, difficulty, uint[] calldata, uint[] calldata) returns (uint, uint);\n        \n        // uint returnCode;\n        // uint errorInfo;\n        // (returnCode, errorInfo) = myEthash.verifyPoW(header.height, header.hashWithoutNonce, header.nonce, header.difficulty, dataSetLookup, witnessForLookup);\n        \n        \n        // if (returnCode == 0){\n        //     return true;\n        // }\n        // return false;\n        return true;\n    }\n\n    function getRlpHeaderHashWithoutNonce(bytes memory rawHeader) private pure returns (bytes32){\n        // duplicate rlp header and truncate nonce and mixDataHash\n        bytes memory rlpWithoutNonce = copy(rawHeader, rawHeader.length-42);  // 42: length of none+mixHash\n        uint16 rlpHeaderWithoutNonceLength = uint16(rawHeader.length-3-42);  // rlpHeaderLength - 3 prefix bytes (0xf9 + length) - length of nonce and mixHash\n        bytes2 headerLengthBytes = bytes2(rlpHeaderWithoutNonceLength);\n        rlpWithoutNonce[1] = headerLengthBytes[0];\n        rlpWithoutNonce[2] = headerLengthBytes[1];\n\n        return keccak256(rlpWithoutNonce);       \n    }\n    \n    function copy(bytes memory sourceArray, uint newLength) private pure returns (bytes memory) {\n        uint newArraySize = newLength;\n\n        if (newArraySize > sourceArray.length) {\n            newArraySize = sourceArray.length;\n        }\n\n        bytes memory newArray = new bytes(newArraySize);\n\n        for(uint i = 0; i < newArraySize; i++){\n            newArray[i] = sourceArray[i];\n        }\n\n        return newArray;\n    }\n    \n    function parentExists(blockHeader memory header, uint parentIdx) internal {\n        require(chain[header.height-1][parentIdx].selfHash == header.parentHash, \"parent doesn't exist\");\n    }\n\n    function pruneChain() internal {\n        if ((lastHeight - initialHeight) >= k){\n            uint idx = k;\n            uint currentHeight = lastHeight;\n            uint stableIdx = 0;\n            while (idx > 0) {\n                stableIdx = chain[currentHeight][stableIdx].parentIdx;\n                idx--;\n                currentHeight--;\n            }\n            chain[currentHeight][0] = chain[currentHeight][stableIdx];\n            // blockHeader memory stableHeader = chain[currentHeight][stableIdx];\n            if(chain[currentHeight].length > 1){\n                deleteHeight(currentHeight);\n            }\n        }\n    }\n\n    function deleteHeight(uint height) internal {\n        uint idx = 1;\n        while(idx < chain[height].length){\n            delete chain[height][idx];\n            idx++;\n        }\n        // delete chain[height];\n    }\n    \n    function sendReward(address relayerAddress) internal {\n\n        // call ERC20 token contract to transfer reward tokens to the relayer\n    }\n\n    function checkTxProof(bytes memory value, uint blockHeight, bytes memory encodedPath, bytes memory rlpParentNodes) public returns (bool) {\n        // add fee for checking transaction\n        require(blockHeight < lastHeight - k, \"Block is not finilized yet\"); // require the block to be finilized \n        bytes32 txRoot = chain[blockHeight][0].txRoot;\n        // TxRootEvent(txRoot);\n        return checkInclusionProof(value, encodedPath, rlpParentNodes, txRoot);\n    }\n\n    function checkStateProof(bytes memory value, uint blockHeight, bytes memory encodedPath, bytes memory rlpParentNodes) public returns (bool) {\n        require(blockHeight < lastHeight - k, \"Block is not finilized yet\"); // require the block to be finilized \n        bytes32 stateRoot = chain[blockHeight][0].stateRoot;\n        return checkInclusionProof(value, encodedPath, rlpParentNodes, stateRoot);\n    }\n\n    function checkReceiptProof(bytes memory value, uint blockHeight, bytes memory encodedPath, bytes memory rlpParentNodes) public returns (bool) {\n        require(blockHeight < lastHeight - k, \"Block is not finilized yet\"); // require the block to be finilized \n        bytes32 receiptRoot = chain[blockHeight][0].receiptRoot;\n        return checkInclusionProof(value, encodedPath, rlpParentNodes, receiptRoot);\n    }\n  \n    function checkInclusionProof(bytes memory value, bytes memory encodedPath, bytes memory rlpParentNodes, bytes32 root) internal returns(bool) {\n         uint result;\n         result = MerklePatriciaProof.verify(value, encodedPath, rlpParentNodes, root);\n         if (result == 0){\n             return true;\n         }\n         return false;\n    }\n\n    function getParentIdxNum(uint height) public returns (uint){\n        return chain[height - 1].length;\n    }\n\n    function parseTransactionAmount (bytes memory rawData) public returns(uint256){\n        bytes memory transactionData = parseRLP(rawData);\n        return parseAmount(transactionData);\n    }\n    \n    function parseRLP(bytes memory rlpData) internal returns(bytes memory){\n        RLPReader.RLPItem memory item = rlpData.toRlpItem();\n        uint idx;\n        idx = 0;\n        RLPReader.RLPItem[] memory itemList = item.toList();\n        return itemList[5].toBytes();\n    }\n    \n    function parseAmount(bytes memory data) internal returns(uint256) {\n        uint256 parsedValue;\n        assembly {\n    \t    parsedValue := mload(add(data, 36))\n        }\n        return parsedValue;\n    }\n}\n",
  "sourcePath": "/home/niusha/Desktop/Relay/relay/src/contracts/Relay.sol",
  "compiler": {
    "name": "solc",
    "version": "0.7.6+commit.7338295f.Emscripten.clang"
  },
  "schemaVersion": "3.3.4",
  "updatedAt": "2021-04-12T00:45:10.298Z",
  "networkType": "ethereum",
  "devdoc": {
    "kind": "dev",
    "methods": {},
    "version": 1
  },
  "userdoc": {
    "kind": "user",
    "methods": {},
    "version": 1
  }
}